:020000040800F2
:100000006010002039010008E5460008513A000858
:10001000A5460008AD0D0008AB7800080000000000
:10002000000000000000000000000000CF5A00089F
:10003000ED0E000800000000B9500008D973000858
:100040005301000853010008530100085301000840
:100050005301000853010008F30E00082F0F000899
:10006000350F00083B0F0008410F0008530100083E
:100070005301000853010008530100085301000810
:100080005301000853010008530100085301000800
:10009000530100085301000853010008470F0008EE
:1000A00053010008530100085301000853010008E0
:1000B00053010008530100085301000853010008D0
:1000C00053010008530100085301000853010008C0
:1000D00053010008530100085301000853010008B0
:1000E000F90E0008D9570008530100085301000811
:1000F00053010008000000005301000853010008EC
:10010000530100085301000853010008530100087F
:1001100053010008530100085301000800000000CB
:1001200053010008DFF80CD000F048FC00480047FD
:100130008187000860100020064880470648004775
:10014000FEE7FEE7FEE7FEE7FEE7FEE7FEE7FEE787
:10015000FEE7FEE769740008250100082DE9F05F5D
:100160000546002092469B46884606468146402426
:100170001BE0284641464746224600F0F4FA534623
:100180005A46C01A914110D311461846224600F033
:10019000DBFA2D1A67EB01084F46224601200021A9
:1001A00000F0D2FA17EB00094E41201EA4F1010421
:1001B000DFDC484631462A464346BDE8F09F40EA28
:1001C00001039B0703D009E008C9121F08C0042AD5
:1001D000FAD203E011F8013B00F8013B521EF9D2BC
:1001E0007047D2B201E000F8012B491EFBD27047E4
:1001F0000022F6E710B513460A4604461946FFF7F3
:10020000F0FF204610BD80EA010210B502F0004365
:10021000400022D04A001FD0010E01EB1261C0F352
:100220005600C2F3560240F4000042F40002A0FB64
:10023000022000047F39140400D0401C50EA124010
:1002400001D44000491EC2B20C0604EBD010401C81
:100250004008802A02D003E0002010BD20F00100F9
:10026000002900DA0020184310BD30B480EA0102F2
:1002700002F0004530F0004221F0004013D090B170
:10028000C30DD40DC2F31601C0F31600E41A41F4F5
:10029000000140F400027D34914201D3641C00E06F
:1002A0004900002C02DA30BC002070474FF40000F7
:1002B0000023914201D3891A034340084FEA4101C8
:1002C000F7D151B1914202D14FF0004105E002D285
:1002D0004FF0010101E06FF0010103EBC45028442D
:1002E00030BC00F062BA2DE9FE4F804681EA03007F
:1002F000C00F0C46009021F0004123F00045B8EB00
:100300000200A94105D24046214690461C460B46B4
:10031000024623F00040104347D0270DC7F30A00E0
:10032000C3F30A510290401A019040286BDAC3F3DC
:10033000130040F4801B0098924620B10023D2EBBA
:10034000030A63EB0B0B01985946C0F1400250467B
:1003500000F0FAF906460D4650465946019A00F05B
:1003600012FA10EB08006141002487EA115284EA76
:10037000E7731A4340D0009A62B3019A012A4FEA08
:10038000075215DC001B61EB02014FF0004202EA4C
:100390000752CDE90042001C41F5801132462B4640
:1003A00000F049FA03B0BDE8F08F40462146F9E776
:1003B000001B61EB0201001C41F5801300185B413A
:1003C0002018A2F5001747EB030140EAD570B619D3
:1003D0006D4111E06D084FEA360645EAC0754FEAF7
:1003E0000752001B61EB0201001C41F58011490816
:1003F0004FEA30000019514132462B4603B0BDE8A8
:10040000F04F00F009BA0098012240000023D0EB21
:10041000020263EBE073009821464FEAE074B8EB08
:10042000000061EB0401E9E783F000435BE781F042
:10043000004158E72DE9FE4F81EA030404F000442F
:1004400021F0004100944FF0000B23F0004350EAEC
:1004500001045ED052EA03045BD0C3F30A54C1F333
:100460000A552C44A4F2F3340194A0FB0254C1F3C6
:10047000130141F48011C3F3130343F4801301FB10
:10048000024400FB034E840A970A44EA815447EA77
:100490008357A4FB076802958D0A05FB07854FEA81
:1004A000932C04FB0C542705029D4FEA065847EA9B
:1004B0001637B5EB08056EEB070C870E920E47EA70
:1004C000811742EA8312A7FB0201B6EB0B0164EB32
:1004D00000042B0D43EA0C335E1844EB1C50DA4643
:1004E0005146E7FB0201C5F313044FEA0B3343EA1D
:1004F00014534FEA0432019C43EA0603A4F10C04AE
:100500000294009CCDE900B400F095F903B0BDE879
:10051000F08F00200146F9E72DE9F04D81EA030450
:1005200004F0004B21F0004514464FF0000A23F080
:10053000004150EA050220D054EA01021DD0C5F363
:100540000A570246C5F31303C1F31300C1F30A5659
:1005500040F4801543F48013A7EB0608101BD64621
:1005600008F2FD3873EB050002D308F1010801E041
:1005700092185B41B8F1000F03DA00200146BDE894
:10058000F08D00204FF48011064684460EE0171BC4
:1005900073EB050705D3121B63EB050306434CEA17
:1005A000010C49084FEA300092185B4150EA0107FC
:1005B000EDD152EA030012D082EA040083EA050179
:1005C000084305D0101BAB4106D20122002306E0F0
:1005D00000224FF0004302E06FF0010253101AEBCB
:1005E00006004CEB085110EB0A0041EB0B01BDE893
:1005F000F04D00F011B970B521F0004303430CD069
:10060000C1F30A550024D5EB040564EB0403D617A7
:10061000AD1AB34102DB0020014670BD201841EB4A
:10062000025170BD0EB5C10F80EAE0700844CA07E0
:10063000002140F233438DE80E000A460B4600F0DD
:10064000FAF803B000BD0EB540F23341029100212B
:10065000CDE900110A460B4600F0EDF803B000BDED
:1006600000F0004220F00040C10DC0F3160040F43D
:1006700000007F2901DA00207047962903DCC1F1D0
:100680009601C84001E096398840002AF4D04042E3
:10069000704720F00040C10DC0F3160040F4000088
:1006A0007F2901DA00207047962903DCC1F1960109
:1006B000C8407047963988407047C1F30A5210B558
:1006C000C1F3130140F2FF3341F480119A4201DA81
:1006D000002010BD40F233439A42A2F2334203DCC1
:1006E000524200F040F810BD904010BD30B5041EDD
:1006F00071F1000404DB4FF00044404264EB01015F
:10070000141E73F1000405DB1C464FF000435242F7
:1007100063EB0403994208BF904230BD30B50B46ED
:10072000014600202022012409E021FA02F59D4221
:1007300005D303FA02F5491B04FA02F52844151EF5
:10074000A2F10102F1DC30BD202A04DB203A00FADC
:1007500002F1002070479140C2F1200320FA03F318
:10076000194390407047202A04DB203A21FA02F016
:100770000021704721FA02F3D040C2F120029140DB
:10078000084319467047202A06DBCB17203A41FA66
:1007900002F043EAE07306E041FA02F3D040C2F10E
:1007A000200291400843194670470029A8BF7047AE
:1007B000401C490008BF20F00100704710B4B0FA97
:1007C00080FC00FA0CF050EA010404BF10BC704732
:1007D00049B1CCF1200421FA04F411FA0CF118BF4C
:1007E000012121430843A3EB0C01CB1D4FEA00611B
:1007F0004FEA102042BF002010BC704700EBC350EE
:1008000010440029A4BF10BC7047401C490008BF19
:1008100020F0010010BC704710B5141E73F10004E5
:1008200008DA401C41F1000192185B411A4301D1E2
:1008300020F0010010BD2DE9F04D92469B4611B10C
:10084000B1FA81F202E0B0FA80F220329046FFF76E
:100850007BFF04460F4640EA0A0041EA0B0153467B
:100860005A46084313D0114653EA010019D0C8F183
:1008700040025046FFF777FF05460E465046594660
:100880004246FFF761FF084305D0012004E02046FF
:100890003946BDE8F08D0020054346EAE0762C435A
:1008A00037430A986305E40AA0EB08000022FD0A1A
:1008B00044EA47540A3002D500200146E9E7010521
:1008C00010196941DDE9084500196941BDE8F04D9D
:1008D000A2E700002DE9F041054621F000400C465A
:1008E000284309D0C4F30A5040F23341884205DD61
:1008F00028462146BDE8F0812846FBE740F2FE315C
:10090000884210DC0CDB4FEA043040EA155050EA14
:10091000053105D0104804F0004101430020E9E70B
:1009200000200146E6E7A0F233404642C6F140020D
:1009300028462146FFF708FF0746884628462146F5
:100940003246FFF710FF43463A46FFF765FF32464F
:10095000BDE8F041FFF7F8BE0000F03FC1F30A52D6
:10096000C1F3130140F2FF3341F480119A4202DADD
:1009700000200146704740F233439A42A2F23342CC
:1009800002DC5242FFF7EFBEFFF7DEBE30B5041EB9
:1009900071F1000404DB4FF00044404264EB0101BC
:1009A000141E73F1000405DB1C464FF00043524255
:1009B00063EB04038B4208BF824230BD064C074DF7
:1009C00006E0E06840F0010394E80700984710341F
:1009D000AC42F6D3FFF7AAFB109100083091000853
:1009E00070B58C1810F8015B15F0070301D110F8F1
:1009F000013B2A1106D110F8012B03E010F8016B1E
:100A000001F8016B5B1EF9D12B0705D40023521EA0
:100A10000DD401F8013BFAE710F8013BCB1A921C08
:100A200003E013F8015B01F8015B521EF9D5A14206
:100A3000D8D3002070BD0000F8B50026044600960B
:100A400000680168C94349062AD5816841F001015F
:100A50008160144814490068B0FBF1F000EB4000DD
:100A600000E0401E00900028FBD100F073FD054619
:100A700011E000BF00F06EFD401B02280BD90420DE
:100A800084F8490054F84C0F40F0010044F8040980
:100A900001202670F8BD20680068C0434006E9D4F4
:100AA0000020F8BD2000002040420F00F0B589B0C2
:100AB0000C46054610220021684607F0A1FE04F10D
:100AC000240269461646084607F08EFB9DF8000092
:100AD000694600064FF000000FD50B180A5C5B78E2
:100AE000520042EAD3120A54401C0F28F5DB9DF84D
:100AF0000F00400080F087000CE00B180A5C5B7868
:100B0000520042EAD3120A54401C0F28F5DB9DF82C
:100B10000F0040008DF80F002068102815D09DF8B8
:100B2000000000064FF0000019D50B180A5C5B7836
:100B3000520042EAD3120A54401C0F28F5DB9DF8FC
:100B40000F00400080F0870016E0002022180F5CA4
:100B5000137D401C7B4013751028F7DB24E00B1835
:100B60000A5C5B78520042EAD3120A54401C0F28F8
:100B7000F5DB9DF80F0040008DF80F00276804F1A9
:100B800014028023BB54002300E083542068401CDF
:100B900020601028F9D3002022180F5C137D401C20
:100BA0007B4013751028F7DB00202118401C0A79C0
:100BB0000B7D5A400A711028F7DB1022211D04A872
:100BC00007F008FE3246294604A807F00DFB102264
:100BD0000021684607F014FE09B0F0BD10B50446C8
:100BE00010220021001D07F00BFE002001462060AE
:100BF00004F12400BDE81040F02207F001BE0B46CE
:100C000000F124021021184607F016BB2DE9FF471A
:100C1000044600680F46154604F1140804F124093F
:100C200000B3C0F11006AE4200D31646B2B2404443
:100C3000394607F0CFFD206830442060102834D3B7
:100C4000B54232D000202118401C0A790B7D5A4051
:100C50000A711028F7DB4A46211D201D07F0C4FA4F
:100C60003744AD1B19E0002021183B5C0A79401C79
:100C70005A400A711028F7DB1022211D684607F040
:100C8000A9FD69464A46084607F0AEFA10226946B1
:100C9000201D07F09FFD103D1037102DE3D8AAB29C
:100CA0003946404607F096FD2560BDE8FF87000005
:100CB0002DE9F0471F4B924698461A7A0126C2F159
:100CC0000F02D7B298F8072098F808801446521CF3
:100CD000C8F10F08A0F1020C174D08F0FF08D2B2BE
:100CE000A8F10109BCF1070F21D2DFE80CF00408DC
:100CF00004080F080400BC4216D2285504E04C45F5
:100D000012DA2855A954521CDA710AE0BF1EBC42FF
:100D10000ADA2855A954521CD0B205F800A0401C8C
:100D2000D8710026012098713046BDE8F087022076
:100D3000FBE700008C000020FD08002030B5114CBE
:100D400005004FF0000094F9013019D00E4D53B159
:100D5000ED6A402D00D30120602D11D3AD06B5F111
:100D6000004F03D00CE00021E96209E0002B07DD11
:100D70005B1E5BB223B919B1A18C41F00701A184BC
:100D8000137030BD1C0900208C000020704700004B
:100D900000231A46194680E80E000249C160024944
:100DA000016170470D093E00AB030500FEE700003E
:100DB0002DE9F0412949002701EBC006A1F10C05FE
:100DC0007079A1F1700800EB400035F8204098F8E8
:100DD0000200B8B9002006F076FB2149884201D212
:100DE000642007E01F49884202D24FF47A7001E084
:100DF00042F21070844200D920460446D8F83400EC
:100E000000B1012798F8120020B1D8F8340000FB97
:100E100004F1081A717901EB410105EB8101886049
:100E20007FB17079104900EB400005EB80008068CD
:100E3000014407F00FFE717901EB410105EB8101DF
:100E40008860B8F81A20D8F834104A43511AD8F8F4
:100E500050201144C8F85010BDE8F081FC0000207B
:100E600080EE3600803F5C02C027090010B586B0D6
:100E700014216846FFF7BCF91A48016841F00201E5
:100E800001600068184C00F00200059001200190FC
:100E90000290032003904FF4704000906946204672
:100EA00000F076FA0022A114204600F04DFB00224B
:100EB0004FF40051204600F047FB00224FF48041E0
:100EC000204600F041FB00224FF40041204600F094
:100ED0003BFB00F037FA00F045FA00F03BFA06B0B1
:100EE00010BD00001C38024000040240704702F0B0
:100EF000C5BA012000F040BA10B54FF4806000F090
:100F00003BFA4FF4006000F037FA4FF4805000F0E5
:100F100033FA4FF4005000F02FFA4FF4804000F005
:100F20002BFABDE810404FF4004000F025BA022033
:100F300000F022BA042000F01FBA082000F01CBA0A
:100F4000102000F019BA10B5202000F015FA40204A
:100F500000F012FA802000F00FFA4FF4807000F0D9
:100F60000BFABDE810404FF4007000F005BAFEE740
:100F7000094A002152F83130834208D802EBC103FC
:100F80009B68834203D902EBC10000797047491C7A
:100F9000C9B21529EED3FEE7008D0008F8B500248C
:100FA000009490F848202546012A12D0012280F8AA
:100FB00048204A681F23072A0DD207683E6C521E3C
:100FC00002EB820293409E430B6893401E433E64B3
:100FD00035E00220F8BD0D2A0BD20668F76BD21F50
:100FE00002EB820293409F430B6893401F43F763D9
:100FF00025E0132A0BD20668B76B0D3A02EB82028A
:1010000093409F430B6893401F43B76317E0066804
:10101000192A0AD2776B133A02EB820293409F435C
:101020000B6893401F43776309E0376B193A02EB73
:10103000820293409F430B6893401F4337630A68C3
:1010400007230A2A0AD20668776902EB4202934014
:101050009F438B6893401F43776125E0142A0BD28E
:1010600007683E690A3A02EB420293409E438B684E
:1010700093401E433E6117E007681D2A0AD8FE68A8
:10108000143A02EB420293409E438B6893401E4306
:10109000FE6009E0FE6D1E3A02EB420293409E4361
:1010A0008B6893401E43FE650A68102A01D0112AFE
:1010B00017D10E4A13681B0213D4136843F40003BC
:1010C0001360096810290CD109490A4A0968B1FB63
:1010D000F2F101EB8101490000E0491E0091002975
:1010E000FBD180F848502046F8BD0000042701409D
:1010F0002000002040420F000068806D7047000013
:10110000F8B504004FF0000504D094F8490000261B
:1011100010B10FE00120F8BD4C4884F84860016828
:1011200041F001010160006800F0010000902046DC
:1011300000F096F8022184F8491045480268636877
:1011400022F440321A4302606269E0680F021043E1
:1011500097FAA7F7E36BB7FA87F7226ABB401A43FF
:10116000104391FAA1F1626AB1FA81F102FA01F138
:101170000843616B102902D0A36B1943084323680D
:1011800019684FF48077C94349062ED5A169D4F870
:101190001CC00843A16841EA0C01D4F810C0BC454A
:1011A0000CD0BCF1010F09D04FF0000ED4F82CC0C8
:1011B00041EA0E01BCF1010F02D00FE0BE46F5E797
:1011C00062B94FF4604C226B9CFAACFCBCFA8CFC0C
:1011D000521E02FA0CF20A4342F400615A68DFF828
:1011E00074C002EA0C020A435A60226891681A4BE2
:1011F0001940014391602169B94221680A6B0DD100
:1012000022F0F8734FF0F877A26A97FAA7F7B7FAC7
:1012100087F7521EBA4013430B6302E022F0F872C4
:101220000A63216889680D4A1140814204D1E6644D
:10123000012084F8490007E0042084F84900E06CAC
:1012400040F00100E06401252846F8BD2038024046
:1012500004270140FF16FCFC89F1FFC0FEFF80BFA0
:1012600070472DE9F041044600680D4681684FF053
:10127000000749050AD58068C00507D5042084F811
:10128000490084F848700120BDE8F08100F062F95F
:1012900006460DE0681C0BD025B100F05BF9801B01
:1012A000A84205D9032084F8490084F84870EBE788
:1012B000206800688007EDD5A06918B921686FF033
:1012C0001200086094F8490004280AD094F84900F4
:1012D000352806D094F84900252804D0152084F834
:1012E00049000020D0E73520F9E7000010B504469A
:1012F00090F84800012820D0012084F848002046BA
:10130000FFF79AFB012817D094F84910222916D02C
:101310005FF0120184F84910002184F84810E1645C
:101320002268C91E116021688A6812F0405F03D1EB
:101330008A6842F080428A6010BD022010BD3221CE
:10134000E8E700000248416841F001014160704750
:10135000002004E00248416841F004014160704708
:10136000002004E00248416841F0020141607047FA
:10137000002004E001F0E8BF044910B50A68024209
:1013800002D00860FFF7F6FF10BD00001404014012
:101390002DE9F84FDFF884B100234FF0010C4FF036
:1013A000030A4FF00F090BF1040EB0E00CFA03F63C
:1013B00014EA060272D04C68022C01D0122C0ED115
:1013C000DC0800EB8408D8F820405D07EF0E09FA2E
:1013D00007F5AC430D69BD402543C8F820500768A8
:1013E0005D0091F804800AFA05F408F00308A743A9
:1013F00008FA05F848EA0708C0F800804F68012F8E
:1014000005D0022F03D0112F01D0122F11D18768E0
:10141000D1F80C80A74308FA05F848EA0708C0F895
:1014200008804768B7430E79C6F300169E403E43D6
:101430004660C668A6438C68AC403443C4604C68C0
:10144000E40063D5364C256845F001052560246825
:1014500023F0030504F001040094324C2E19B46803
:101460009D072F0F09FA07F5AC432F4DA84201D174
:10147000002524E02D4DA84201D101251FE02C4D6F
:10148000A84201D102251AE02A4DA84201D1032524
:1014900015E0294DA84202D1042510E036E0274D81
:1014A000A84201D105250AE0254DA84201D1062513
:1014B00005E0244DA84201D1072500E00825BD40E4
:1014C0002543B560DBF800405D464E689443F60363
:1014D00000D514432C60DEF8004075464E689443F6
:1014E000B60300D514432C600C4D08352C684E68AB
:1014F0009443F60200D514432C60084D0C352C683B
:101500004E689443B60200D514432C605B1C0A68F5
:101510001446DA407FF44AAFBDE8F88F000401407A
:101520002038024000000140000002400004024058
:1015300000080240000C0240001002400018024067
:10154000001C0240001402400AB181617047090486
:10155000FBE70000014800687047000024000020FD
:1015600002480168491C0160704700002400002007
:10157000094810B5016841F004010160016841F0BB
:1015800002010160032000F04FF80F2000F006F880
:1015900000F006F8002010BD003C0240002070471B
:1015A00010B500F073F800F05DF8BDE8104000F0F1
:1015B0004DB800F01F02012191404009800000F168
:1015C000E020C0F8001170474109890001F1E021D5
:1015D000D1F8001200F01F0201209040014201D01A
:1015E0000120704700207047F0B40E4B1B680C467A
:1015F000C3F30223C3F10705042D00D90425191DE7
:10160000072901D2002300E0DB1E012606FA05F1BE
:10161000491E214099409E40761E16403143F0BC41
:1016200003F061B80CED00E0064900F0070208681D
:101630004FF6FF03184040EA0220034A10430860B7
:10164000704700000CED00E00000FA050120810267
:1016500091FAA1F1024AB1FA81F142F821007047F2
:1016600000000E420120410291FAA1F1024AB1FAB2
:1016700081F142F82100704700000E4202480068E4
:1016800000F4C0507047000000700040002010219E
:1016900091FAA1F1024AB1FA81F142F821007047B2
:1016A00000000E42094A136823F00303034313604A
:1016B0000748026822F004020260012903D040BFFB
:1016C00020BF20BF704730BF70470000007000404F
:1016D00010ED00E00B4A136823F00303034313608B
:1016E0000948026842F004020260012907D040BFA5
:1016F00020BF20BF016821F004010160704730BFA6
:10170000F8E700000070004010ED00E02DE9F84F10
:1017100004460068C10701D180076FD548480168B9
:1017200041F0805101600068464D00F0805000900B
:10173000286840F480702860FFF70CFF064604E03C
:10174000FFF708FF801B642849D82868C005F7D533
:101750003B4D10352868616800F4403001F4403199
:101760000126814202D02178C90707D1A16801F47E
:10177000403181421AD02078800717D528684FF46D
:10178000000191FAA1F2B2FA82F293002E4A20F4FB
:1017900040301344C3F8806691FAA1F1B1FA81F1A7
:1017A00002EB81010023C1F880362860DFF89080C9
:1017B00061684FF48030A8F12408814202D0A1680A
:1017C000814227D1FFF7C6FE074641F2883A4FF41F
:1017D000007907E0FFF7BEFEC11B514502D9032087
:1017E000BDE8F88F99FAA9F0B0FA80F040F0400017
:1017F000B6EB501F03D1D8F8000001E01EE02868C6
:1018000099FAA9F1B1FA81F101F01F0206FA02F189
:101810000842DFD06168C1F30140032808D1D8F83D
:10182000002001F0C04122F0C0420A43C8F8002065
:101830002868616801F44031084328600020CFE740
:101840002438024000700040000047422DE9F05F5C
:10185000DFF80CA304460E46DAF80000C14900F098
:1018600001070122DFF8FC92BE48343153044FF0E7
:10187000007B4FF0020E41F2883509F10809B742AA
:1018800070D2012E05D1DAF800C04CF0040CCAF871
:1018900000C0DAF800C02CF0010C4CEA060CCAF8C3
:1018A00000C0DAF8007007F00107B74275D126785A
:1018B000B60709D5D9F80070D4F808C027F0F007AA
:1018C00047EA0C07C9F800702678F60758D0676811
:1018D000022F05D0032F10D0012F1CD04FF400731E
:1018E00093FAA3F6B6FA86F646F0200676093AD0C1
:1018F000D0F8000093FAA3F11AE09BFAABF6B6FA1F
:1019000086F646F02006760901D0006800E00868F7
:101910009BFAABF10CE09EFAAEF6B6FA86F646F00C
:101920002006760901D0006800E008689EFAAEF152
:10193000B1FA81F101F01F018A4010422DD0D9F88F
:1019400000004E4620F003003843C9F80000FFF7BE
:1019500001FE0746606802280DD0032817D0012831
:1019600021D02CE030E00868C4E700BFFFF7F2FDAB
:10197000C01BA8427ED83068C0F381000228F5D190
:10198000D1E000BFFFF7E6FDC01BA84272D8306867
:10199000C0F381000328F5D1C5E0C2E0FFF7DAFD0E
:1019A000C01BA84266D83068C0F381000128F5D179
:1019B000B9E000BFFFF7CEFDC01BA8425AD830687F
:1019C00010F00C0FF6D1AEE02778BF0709D5D9F893
:1019D00000C0D4F808802CF0F00C4CEA080CC9F8D0
:1019E00000C02778FF0760D06768022F05D0032F5B
:1019F00011D0012F1ED04FF4007393FAA3FCBCFA50
:101A00008CFC4CF0200C5FEA5C1C3ED0D0F800004F
:101A100093FAA3F11CE09BFAABFCBCFA8CFC4CF0F3
:101A2000200C5FEA5C1C01D0006800E008689BFAAB
:101A3000ABF10DE09EFAAEFCBCFA8CFC4CF0200C35
:101A40005FEA5C1C01D0006800E008689EFAAEF115
:101A5000B1FA81F101F01F018A40104261D0D9F83A
:101A6000001021F003013943C9F80010FFF772FD9F
:101A7000074600E039E0606802280FD003281BD039
:101A8000A84601284D4624D032E00868C0E700BFD0
:101A9000FFF760FDC11B414502D926E0A8464D462F
:101AA0002868C0F381000228F2D125E0FFF752FD3B
:101AB000C11B414502D918E0A8464D462868C0F32D
:101AC00081000328F2D117E0FFF744FDC11B414517
:101AD0000BD82868C0F381000128F5D10CE000BFC5
:101AE000FFF738FDC11B414502D90320BDE8F09F37
:101AF000286810F00C0FF3D1012E05D1DAF8001090
:101B000041F00401CAF80010DAF8001021F00101D8
:101B10003143CAF80010DAF8000000F00100B042CA
:101B200001D00120E2E72078400707D5D9F800105E
:101B3000E26821F4E0611143C9F800102078000741
:101B400008D5D9F80010226921F4605141EAC20198
:101B5000C9F800100F20FFF721FD0020C6E70000A4
:101B6000003C02400038024000B500F043F808494C
:101B70000968F02292FAA2F201F0F001B2FA82F2C0
:101B8000D140044A515CC8400349086000BD0000D0
:101B900008380240B48D00082000002000B5FFF78F
:101BA000E3FF074909684FF4E06292FAA2F201F4F8
:101BB000E061B2FA82F2D140024A515CC84000BDF5
:101BC00008380240B48D000800B5FFF7CDFF074983
:101BD00009684FF4605292FAA2F201F46051B2FA2D
:101BE00082F2D140024A515CC84000BD0838024030
:101BF000B48D00081F4A106800F00C01042913D0AE
:101C0000082913D00C2913D0101F006800F460417C
:101C10004FF4604090FAA0F0B0FA80F0C1404FF469
:101C20000040491C8840704713487047134870476C
:101C30004FF4701393FAA3F300F47011B3FA83F323
:101C4000D9400F4B00F440001268595C4FF4400338
:101C500093FAA3F3B3FA83F3D840094B143B185C0F
:101C6000D203B1FBF0F001D5044900E0024948433A
:101C700070470000083802400024F40000127A0087
:101C8000C48D00082DE9F84F04460078DFF8DCB376
:101C9000F74FF84EC0074FF0010528D0DBF80010D1
:101CA0005846C1F381014FF40038022907D001687A
:101CB000C1F3810103291BD10068C00318D598FA2C
:101CC000A8F0B0FA80F040F02000400901D0386858
:101CD00000E0306898FAA8F1B1FA81F101F01F0133
:101CE00005FA01F1084202D0606800287AD085E048
:101CF000386820F480303860386820F480203860FC
:101D0000FFF728FC824641F2883905E0FFF722FC04
:101D1000A0EB0A0149457CD898FAA8F0B0FA80F007
:101D200040F02000400901D0386800E0306898FA9F
:101D3000A8F1B1FA81F101F01F0105FA01F10842A1
:101D4000E4D1386820F480303860606801280BD016
:101D5000052811D0386820F480203860606868B3A6
:101D6000FFF7F8FB824613E0386820F480203860E3
:101D7000386840F48030F0E7BD490520891C0870C0
:101D8000ECE700BFFFF7E6FBA0EB0A014945C2D82C
:101D900098FAA8F0B0FA80F040F02000400901D095
:101DA000386800E0306898FAA8F1B1FA81F101F0E2
:101DB0001F0105FA01F10842E4D01FE0FFF7CAFB5A
:101DC000824605E0FFF7C6FBA0EB0A014945A2D811
:101DD00098FAA8F0B0FA80F040F02000400902D054
:101DE000386801E0B1E0306898FAA8F1B1FA81F101
:101DF00001F01F0105FA01F10842E3D12078DFF874
:101E0000788280074FF0000A4FF0020960D55846EB
:101E100000E07BE1DBF80010C1F38101012907D06C
:101E20000168C1F3810103291BD10068C00318D4E4
:101E300099FAA9F0B0FA80F040F02000400901D0F2
:101E4000386800E0306899FAA9F1B1FA81F101F03F
:101E50001F0105FA01F108422BD0E068012874D176
:101E600027E0E068A8B395FAA5F0B0FA80F048F84A
:101E70002050FFF76FFB009006E000BFFFF76AFB02
:101E80000099401A6428A2D899FAA9F0B0FA80F013
:101E900040F02000400901D0386800E0306899FA2D
:101EA000A9F1B1FA81F101F01F0105FA01F108422F
:101EB000E4D06E48001F01684FF4F85393FAA3F37F
:101EC0002269B3FA83F321F4F8519A401143016077
:101ED00025E0FFE795FAA5F1B1FA81F148F821A0D4
:101EE000FFF738FB009005E0FFF734FB0099401A3C
:101EF0006428C8D899FAA9F0B0FA80F040F0200020
:101F0000400901D0386800E0306899FAA9F1B1FAC7
:101F100081F101F01F0105FA01F10842E4D12078B6
:101F2000C0066ED5DBF8000010F00C0F0ED0A169D2
:101F30004FF48070E9B390FAA0F0B0FA80F048F85E
:101F40002050FFF707FB009062E08EE04FF4007135
:101F500091FAA1F0B0FA80F040F02000400901D0E1
:101F6000386800E0306891FAA1F1B1FA81F101F02E
:101F70001F0105FA01F1084202D0A069002874D0BF
:101F80003A48216A001F006800F4604081421CD971
:101F9000084603F0E5FB002867D13448001F0168BC
:101FA000226A21F4604111430160016821F07F4100
:101FB00000E063E04FF07F4393FAA3F3E269B3FAE2
:101FC00083F39A401143016018E02848001F02681B
:101FD00022F460420A43026001684FF07F4393FAA3
:101FE000A3F3E269B3FA83F321F07F419A401143EE
:101FF0000160206A03F0B4FB0028CDD10F20FFF769
:10200000CDFA62E0FFF7A6FA0099401A64287DD85D
:102010004FF4007191FAA1F0B0FA80F040F0200086
:10202000400901D0386800E0306891FAA1F1B1FAB6
:1020300081F101F01F0105FA01F10842E2D00B48DD
:10204000001F0168226A21F46041114301600168A8
:102050004FF07F4393FAA3F3E269B3FA83F321F0DD
:102060007F419A40114301602FE0B3E108380240FC
:1020700000380240343802400000474290FAA0F095
:10208000B0FA80F048F820A0FFF764FA009005E06D
:10209000FFF760FA0099401A6428B8D84FF400712D
:1020A00091FAA1F0B0FA80F040F02000400901D090
:1020B000386800E0306891FAA1F1B1FA81F101F0DD
:1020C0001F0105FA01F10842E2D12078000755D539
:1020D000606950B395FAA5F0B0FA80F008EB800083
:1020E000C0F88056FFF736FA009005E0FFF732FAA5
:1020F0000099401A64288AD899FAA9F0B0FA80F0B9
:1021000040F04000B5EB501F03D100E090E038688C
:1021100000E0306899FAA9F1B1FA81F101F01F01EC
:1021200005FA01F21042E1D028E095FAA5F1B1FAE2
:1021300081F108EB8101C1F880A6FFF70BFA00904E
:1021400006E000BFFFF706FA0099401A64286FD82E
:1021500099FAA9F0B0FA80F040F04000B5EB501FBA
:1021600001D1386800E0306899FAA9F1B1FA81F13B
:1021700001F01F0105FA01F21042E3D12078400777
:1021800079D5A648016841F080510160006800F0EF
:1021900080500090A248016841F480710160FFF70F
:1021A000D9F9814606E000BFFFF7D4F9A0EB09009A
:1021B00064283DD89A480068C005F5D5306820F4F9
:1021C00080703060306820F480603060FFF7C2F9C2
:1021D0004FF40079009007E0FFF7BCF90099411A2D
:1021E00041F28830814223D899FAA9F0B0FA80F000
:1021F00040F04000B5EB501F01D1386800E0306876
:1022000099FAA9F1B1FA81F101F01F0105FA01F182
:102210000842E1D1A06801280BD008B1052812D0EE
:10222000306820F480703060306820F4806003E013
:102230008BE0306840F480703060A06840B3FFF7F6
:1022400089F900900CE0306840F480603060F0E77D
:10225000FFF780F90099411A41F28830814274D821
:1022600099FAA9F0B0FA80F040F04000B5EB501FA9
:1022700002D1386801E02DE0306899FAA9F1B1FA8D
:1022800081F101F01F0105FA01F21042E0D021E0D6
:10229000FFF760F9009007E0FFF75CF90099411A39
:1022A00041F28830814250D899FAA9F0B0FA80F012
:1022B00040F04000B5EB501F01D1386800E03068B5
:1022C00099FAA9F1B1FA81F101F01F0105FA01F2C1
:1022D0001042E1D1606AB8B3DBF80010C1F38101AC
:1022E000032977D002284FF080714FF000795046D3
:1022F0000BD091FAA1F1B1FA81F148F82100FFF772
:1023000029F9B84604464F466EE04FF0807191FAC5
:10231000A1F1B1FA81F18A0042495050FFF71AF950
:10232000B24680464E4605E0FFF714F9A0EB0800E0
:10233000642856D896FAA6F0B0FA80F040F0200053
:10234000400903D0386803E064E04AE0DAF80000AE
:1023500096FAA6F1B1FA81F101F01F0105FA01F137
:102360000842E1D1D4E90A10226BDBF800300143C6
:1023700023F47D031A431143CBF800104FF0807013
:1023800090FAA0F0B0FA80F0810026480D50FFF7D7
:10239000E1F8B8460446574605E000BFFFF7DAF813
:1023A000001B64281DD896FAA6F0B0FA80F040F021
:1023B0002000400902D0D8F8000000E0386896FA02
:1023C000A6F1B1FA81F101F01F0105FA01F108420D
:1023D000E4D01FE020E000BFFFF7BCF8001B64283A
:1023E00002D90320BDE8F88F97FAA7F0B0FA80F081
:1023F00040F02000400902D0D8F8000000E030682A
:1024000097FAA7F1B1FA81F101F01F0105FA01F184
:102410000842E1D10020E5E70120E3E7243802404B
:1024200000700040000047427047017F012916D02C
:1024300001210177022242770368CA225A620368A7
:1024400053225A620268936843F020039360036842
:10245000FF225A6241770021017708467047022027
:10246000704705F051B8000010B504460068C16817
:10247000C9050CD58068C00409D52046FFF7F1FFD7
:102480002068C16801F0800161F4C071C1602068FA
:10249000C16889050CD58068800409D52046FFF7FE
:1024A000C3FF2068C16801F0800161F42071C16040
:1024B00003494FF4003008600120607710BD000030
:1024C000140401402DE9F0470446007F012822D082
:1024D0004FF0010884F81C80022060772268CA202F
:1024E000506222685320506220680025FF26B1F513
:1024F000807F81684FF0030A4FF47A790ED021F47F
:10250000007181602068816821F400518160FFF7CB
:1025100021F8074624E00220BDE8F08721F480710D
:1025200081602068816821F480518160FFF712F892
:10253000074604E0FFF70EF8C01B484509D820689D
:10254000C068C007F6D00FE0FFF704F8C01B48458D
:1025500006D92068466284F81DA025770320DBE7B2
:102560002068C0688007EFD52068466284F81D8027
:1025700025770020D0E770B50C464FF480718A4271
:1025800004D161620068C169406C05E04FF40071DC
:1025900061620068016A806CC1F30625C0F30E0217
:1025A000C1F305402070657001F07F05A5704025DE
:1025B00005EA114525726260C1F3056284F82020A6
:1025C00001F0804201F08031E261616183B903F082
:1025D00005F92070607803F001F96070A07803F0CD
:1025E000FDF8A07094F8200003F0F8F884F82000BB
:1025F000002070BD10B500680B4641680D480140D1
:10260000080CD870C1F304245C7001F03F049C7086
:10261000C1F34231197052B903F0E0F8D87058781C
:1026200003F0DCF85870987803F0D8F89870002020
:1026300010BD00003FFFFF0010B50C460168896A1D
:1026400089B26160006801680E480140C1F305402D
:102650002070C1F30623637001F07F03A370402351
:1026600003EA1141217252B903F0B8F82070607882
:1026700003F0B4F86070A07803F0B0F8A070002008
:1026800010BD00007F7F7F0070B5040002D0607F26
:1026900010B106E0012070BD00202077204600F038
:1026A00041F8022060772168CA20486221685320DF
:1026B0004862204603F0A6F8FF210028206803D0D6
:1026C000416204206077E5E78268154B1A4082601A
:1026D0002268906863681843D4E904352B43184393
:1026E00090602268E068106120680269238942EAEC
:1026F000034202612068C26822F08002C260206842
:10270000026C22F4802202642068026CA3691A43DE
:1027100002642068416201206077002070BD0000E3
:10272000BFFF8FFF10B590B004200090002001245F
:10273000099002946846FFF7A5FA08B1FEF717FC66
:102740004FF48030CDE90D400DA8FEF7DFFF08B152
:10275000FEF70DFC4FF4800090FAA0F00849B0FAA3
:1027600080F001EB8000C0F880460022114629204D
:10277000FEF73AFF2920FEF71CFF10B010BD000045
:10278000000047422DE9F05F0446007F0D46012816
:1027900048D00120207702206077206800278068D9
:1027A0004FEA4060EAB3002859DA287803F016F8B7
:1027B00095F8200003F012F8A87829782A7A40EAE0
:1027C00001406978090241EA0241084395F8201066
:1027D00040EA0166E869A9690643686906436868D2
:1027E00040EA01082168CA204862216853204862F3
:1027F000686AFF25B0F5807F20684FF0030B4FF427
:102800007A7A81682DD021F4007181602068C168D6
:1028100001F0800161F42071C160FEF79BFE8146EA
:1028200055E002E00220BDE8F09F002800DB2F7297
:10283000287802F0DCFF0604687802F0D8FF46EA48
:102840000026A87802F0D3FF0643287A46EA00461D
:1028500095F8200002F0CBFF46EA0066BAE72F7237
:10286000A6E721F4807181602068C16801F08001D1
:1028700061F4C071C160FEF76DFE814606E000BFE5
:10288000FEF768FEA0EB0900504519D82068C06823
:10289000C007F5D02068C6612168C1F8448020686F
:1028A000816841F4807181602068816841F48051C1
:1028B0001FE000BFFEF74EFEA0EB0900504506D911
:1028C0002068456284F81DB027770320ABE72068B5
:1028D000C0688007EED5206806622168C1F848808C
:1028E0002068816841F4007181602068816841F44A
:1028F000005181600848016841F4003101600648D8
:102900000830016841F4003101602068456201200F
:1029100060772777002086E7000401402DE9F04723
:102920000446007F0B46012825D04FF0010984F8AA
:102930001C9002206077587802B302F04FFF98781D
:1029400002F04CFF9878D97840EA01455878197818
:10295000000240EA413005432168CA2048622168EC
:1029600053204862204602F04DFF0026FF274FF01B
:10297000040838BB19E00220BDE8F087C10603D582
:1029800000F0EF000A305870D87802F030FF0204EF
:10299000587802F02CFF42EA0022987802F027FFD4
:1029A0000243187842EA4035D6E70D4805402068D2
:1029B00045602068C16821F08001C160204600F0B8
:1029C00085F830B12068476284F81D8026770120A1
:1029D000D2E72068476284F81D9026770020CBE775
:1029E0003FFFFF002DE9F0470446007F0D46012818
:1029F00011D04FF0010A84F81CA0022060772068F3
:102A0000002680684FEA406042B100281ADA287830
:102A100002F0E4FE17E00220BDE8F087002800DBAA
:102A20002E72287802F0E3FE0204687802F0DFFEDE
:102A300042EA0022A87802F0DAFE0243287A42EA4B
:102A400000470AE02E72A878297840EA01476878A2
:102A5000297A000240EA014007432168CA204862FF
:102A6000216853204862204602F0CCFE4FF0FF0858
:102A70004FF00409C0B91448074020680760206877
:102A8000816821F480218160D5E903010843216830
:102A90008A68104388602068C16821F08001C160A5
:102AA000204600F013F838B12168C1F8248084F87A
:102AB0001D9026770120AFE72168C1F8248084F8B3
:102AC0001DA026770020A7E77F7F7F0070B5044612
:102AD00000688168890614D4C16821F0A001C16032
:102AE000FEF738FD05464FF47A7606E0FEF732FD34
:102AF000401BB04201D9032070BD2068C068800629
:102B0000F4D5002070BD10B504000ED02068016817
:102B100021F040010160204600F04BF80020606584
:102B200084F8510084F8500010BD012010BD70B52C
:102B3000040004D094F85100002510B106E00120F3
:102B400070BD84F85050204600F034F8022084F81C
:102B500051002068016821F040010160D4E90101C1
:102B60000843D4E903121143084361690843218BE8
:102B700001F400710843E1690843216A0843A16A2E
:102B8000084321680860A069042101EA1040616AD5
:102B90000843216848602168E06A08612068C169CB
:102BA00021F40061C1616565012084F851000020B5
:102BB00070BD704770472DE9F8430025DDF820808F
:102BC0000446ADF8005090F85100012803D094F865
:102BD000510022287DD169B162B15BB194F85000F7
:102BE000012876D0012684F8506094F8510001281D
:102BF00003D005E00120BDE8F883322084F85100BD
:102C00006565A263A387E3872163A386E386A56442
:102C1000E564A06A4FF40057B84209D12068016802
:102C200021F4005101602068016841F40051016005
:102C300020680168490603D4016841F04001016041
:102C4000E0684FF48271B0F5006F606807D000282B
:102C500067D088426ED1E08E012862D06AE020B150
:102C600088420CD1E08E012809D1206B21680088B0
:102C7000C860206B801C2063E08E401EE086E08EE2
:102C800080B9A06AB84244D12068016841F48051FB
:102C900001603EE02068C068A16B0880A06B801CCA
:102CA000A0639EE0434600220221204602F0C0FEBF
:102CB000002874D1206B21680088C860206B801CBC
:102CC0002063E08E401E0004000CE08609D1A06A5B
:102CD00000E0C7E0B84204D12068016841F48051A7
:102CE0000160434600220121204602F0A1FE002897
:102CF0006FD12068C068A16B0880A06B801CA063A6
:102D0000E08F401EE087E08E0028CBD1606800286D
:102D10006AD1434600220121204602F089FEF0BB21
:102D2000B8E7206B411C216321680078C860E08E01
:102D3000401EE086E08E98B9A06AB84204D12068AF
:102D4000016841F480510160434600220121204680
:102D500002F06EFE18BB2068C068A16B087040E0EE
:102D6000434600220221204602F062FEB8B9206BE1
:102D7000411C216321680078C860E08E401E000479
:102D8000000CE08607D1A06AB84204D1206801682F
:102D900041F48051016000224346012100E018E027
:102DA000204602F045FEA0B92068C168A06B421C15
:102DB000A2630170E08F401EE087E08E0028CFD133
:102DC000606888B9434600220121204602F030FEA7
:102DD00008B103200FE72068C168A06B421CA26302
:102DE0000170E08F401EE087A06AB84210D14346D0
:102DF00000220121204602F01BFE18B1606D40F058
:102E000002000FE02068C068ADF80000BDF80000C7
:102E1000434601228021204602F00AFE20B1606D67
:102E200040F020006065D4E784F85160A06AB842A1
:102E300014D120688168C943C9060FD4616D41F07F
:102E400002016165016821F4005101602068016898
:102E500041F40051016084F85050CBE684F85050A2
:102E60000020C8E60220C6E670B5040018D0022093
:102E700084F839002068C16821F40051C1602068DD
:102E80000025C5602068056120684561204600F086
:102E900039F8E56384F8395084F83850002070BD63
:102EA000012070BD70B5040004D094F839000025ED
:102EB00010B106E0012070BD84F83850204600F0C3
:102EC0004FF8022084F839002068C16821F40051CD
:102ED000C160204604F0ECFB2068016921F49041B8
:102EE00001612068416921F02A0141612068C168BF
:102EF00041F40051C160E563012084F839000020ED
:102F000070BD000010B586B014216846FDF770F959
:102F10001148016841F001010160016801F00101FF
:102F20000591016841F00101016000680B4C00F05F
:102F300001000590032001900020029004200090E1
:102F400069462046FEF724FA08200090694620468C
:102F5000FEF71EFA06B010BD1C3802400000024009
:102F600030B51A4887B0016841F00101016001687D
:102F700001F001010591016841F001010160006863
:102F800000F00100059011480830016841F400315B
:102F900001600068072400F40030059004200090D0
:102FA00002200190012002900320CDE90304084D86
:102FB00069462846FEF7ECF908200090694604941B
:102FC0002846FEF7E5F907B030BD00001C38024086
:102FD000000002402DE9F047044690F83900994678
:102FE0000D46012801D0222858D12DB322B394F8E0
:102FF0003800012852D0012684F838600027E763A2
:1030000094F8390022281AD05FF0120084F83900B1
:10301000A284E2844FF48058E08C4B46401EE0844A
:10302000A0684FF0000240454FF08001204613D1C8
:1030300004F0F2FB08BB04E00120BDE8F087322079
:10304000E4E728882168C0F308004860206908B1D7
:103050006D1C08E0AD1C06E004F0DEFB68B92168D9
:1030600015F8010B4860E08C0028D5D14B460022B2
:103070004021204604F0D0FB08B10320DDE794F89E
:103080003900322806D084F8396000BF84F83870DF
:103090000020D2E7222084F83900F7E70220CCE7AD
:1030A00010B5174886B00178002926D1012101709A
:1030B00015481449002401604FF40031C0E901149F
:1030C000046144621021446381614FF44031C16165
:1030D0000E48016841F400710160006800F400705E
:1030E00005900948FEF70CF80320CDE90104039090
:1030F0006A461021064800F0E9F806B010BD00004D
:103100005200002000240140100500202038024019
:10311000000002401FB51A4A014600201278002A1A
:103120002CD018484268D2431207FBD4164C2068B2
:1031300040F400702060206800F4007003900120CB
:10314000CDE900100620029069461048FDF726FFE1
:103150000E48FEF7CBF84FF0FF310C48FEF781F830
:103160000A48FDF7C9FF094980B209688A6822F058
:1031700001028A60216821F40071216004B010BD51
:10318000520000200070004020380240100500204E
:1031900010B500F091FB04484068804705F0ECFC56
:1031A00002490020487010BD708C000852000020B9
:1031B00001210020FEF776BA10B5EFF3108472B645
:1031C000FFF7E6FF0648016841F00401016084F35F
:1031D00010880121BDE810400846FEF77BBA0000C8
:1031E000007000402DE9F041EFF3108472B6012029
:1031F00090FAA0F1274EB1FA81F146F82100264A53
:103200000223254912F1340293FAA3F5B5FA85F5A4
:1032100045F020056D0901D00D6800E0156893FAAE
:10322000A3F7B7FA87F707F01F0700FA07F73D4241
:10323000EAD04FF0807393FAA3F3B3FA83F346F81E
:1032400023004FF0007500BF95FAA5F3B3FA83F39E
:1032500043F020035B0901D00B6800E0136895FA86
:10326000A5F6B6FA86F606F01F0600FA06F6334211
:10327000EAD009480830016841F0030101600168A3
:10328000C1F381010329FAD100F0DEF884F310883C
:10329000BDE8F081000047420038024001460020AE
:1032A0000A0A00D008204FF2F002114201D040F08B
:1032B00004004CF6CC42114201D040F002004AF624
:1032C000AA22114201D040F00100704718B41C4BF3
:1032D000C4181C4B10D0B4F5806F15D0B4F5006F36
:1032E0001FD0B4F5406F1C6823D044F020041C604C
:1032F0001B6803F020030EE01C6844F001041C600E
:103300001B6803F0010306E01C6844F002041C6023
:103310001B6803F002030093116018BC1146FEF70E
:1033200037B81C6844F004041C601B6803F00403F5
:10333000F1E744F008041C601B6803F00803EAE7A7
:103340000000FEBF1C38024010B5FFF7A7FF04497C
:1033500051F82000002802D0BDE81040004710BD01
:103360004403002070B51C4615460E460846FFF77C
:1033700095FF002C0FD0084941F82040304601F05D
:10338000C5F8044600222946FEF72EF92046BDE87E
:103390007040FEF70EB970BD44030020D2B2FEF7B4
:1033A000D3B8000010B500241120FFF7B3FE40F69B
:1033B000B832B8B10C491346B1F8F8105943B1FB13
:1033C000F0F1914201D9FE240CE0B1F5E16F09D38F
:1033D000A1F5E161C1EBC11040004FF49661B0FB73
:1033E000F1F0C4B2204610BD0000F81F0349D1E936
:1033F0001402496E50404840704700000000F81F1A
:10340000104951F8502F4B691A44120EC2714B6982
:103410000A681A44120C82710A888B8A1A44120AAA
:1034200042710A780B7D1A4402714A68120EC2700A
:103430004A68120C82708A88120A427009790170F7
:10344000704700000000F81F10B50A4C6078002893
:103450000ED1FFF725FE08480068804700F08AFA81
:1034600000F0A6F805F08EFBFDF790FC01206070DF
:1034700010BD000052000020708C000870B5410E95
:10348000C0017D220023FCF769FE054600F088F8A4
:10349000044600E000BF00F083F8001BA842F9D307
:1034A00070BD00002DE9F041074600240D4622467C
:1034B0002C48FFF7C1F86E6800E006460022294656
:1034C0002848FFF7B9F868688642F6D100223946E5
:1034D0002448FFF78FF80020234A244BF97803E0B3
:1034E00086070BD01C44401C8142F9D888074FF056
:1034F000000005D079781E4A491E17E01444F2E70F
:103500001B4A79780C32491E06E0135C40F2A32670
:10351000734304EBC314401C8142F6D808E0135CEB
:1035200040F2A326734304EBC314401C8142F6D837
:103530006978A878C1EB011100EB810228784FF47B
:1035400061614843B97840F2A323594300EBC110AD
:10355000104469682044C1EB802000F2FF30BDE8D0
:10356000F0810000840300200085E2018033E10146
:10357000CD8D0008032070470148006870470000A7
:10358000CC03002000B587B0694605A8FFF78AFF85
:103590000249096807B0401A00BD0000CC030020B2
:1035A00000B587B0694605A8FFF77CFF07B000BDEE
:1035B00010B5084C207800280AD100F037F84FF4F5
:1035C00080710548FEF77EFF00F06AF80120207048
:1035D00010BD000028000020840300200148FEF7F1
:1035E00043BF00008403002070B50446FFF7CAFF04
:1035F0000D4D211AB5F90200C01C81424FF00100A7
:1036000002D900F053FF01E000F044FF00F05AFF40
:1036100028B9012000F04AFFB5F90200241A20461B
:10362000BDE8704000F048B82800002010B51B48E5
:1036300086B019490024C0E900141F21816040F2BE
:10364000FF31C0E9031444618461FFF71DF81020C5
:103650008DF8170001208DF815008DF816008DF8F3
:103660001400002205A90D48FFF758F98DF8004015
:103670008DF801408DF802408DF8084001940494C3
:103680000022694605480394FFF7ACF90348FEF7AA
:10369000CCFE06B010BD00000028004084030020CE
:1036A00010B5044C211D04F11800FFF7FBFE20604B
:1036B00010BD0000CC030020F0B587B005461422F1
:1036C000484901A8FCF77BFD46484C38006E009045
:1036D00000F090F844484FF4005404600298C5F399
:1036E0000901A0F2FF3040420844404A86B2AB0ACA
:1036F0009DF80200514202E0401C134480B28B420C
:10370000FAD29DF804204FF4616103E0521C92B29A
:10371000A3F561638B42F9D29DF8051002E0491CC4
:1037200089B23C3B3C2BFAD29DF806502B449DB20B
:103730004FF4806305E000BFA6F580666D1CB6B24D
:10374000ADB29E42F8D203E03C3D491CADB289B215
:103750003C2DF9D203E03C39521C89B292B23C298B
:10376000F9D203E0183A401C92B280B2182AF9D27A
:103770009DF803309DF801709B0730D01C4B5B1EF9
:10378000FB5C834203D2B0FBF3F703FB1700154B3E
:10379000A6F2FF362C3B76425E604FF020669E61BB
:1037A0009D7059701A7083F820009DF80C001872F3
:1037B0000020D86158614FF48071D8605962024688
:1037C00018611946A1F12000FEF7DCFF01A9684647
:1037D000FFF768FE04481030046007B0F0BD044BEA
:1037E0000C33CCE7D00300201804024080AEFEFF6B
:1037F000CD8D000806480068C16801F0800161F4C1
:10380000C071C1604FF480710148FEF75BBE0000DB
:10381000840300207D21A0FB0110420642EAD11062
:10382000704710B5410EC0017D220023FCF796FCC5
:1038300010BD000030B51D4C87B06078002833D132
:103840002920FDF7C1FE01282ED16070694605A828
:10385000FFF728FE164905464FF40050086014494A
:1038600010310860134942110023A1F12000FEF736
:1038700082FE104890F82020017802EB420201EB12
:10388000C2014278C1EB011102EB81018278C1EBE8
:103890000111808802EB8101C0EB812101F2FF312F
:1038A000681A61880844608007B030BD2800002095
:1038B00018040240A403002070B586B014216846A5
:1038C000FCF796FC1F48FFF71EF91F48016841F4FA
:1038D00080510160016821F4805101601B4E012478
:1038E00000256A4680213046CDE90145FFF7EEFC10
:1038F000002280213046FFF751FD022002906A46E7
:1039000040213046FFF7E2FC002240213046FFF71D
:1039100045FD6A46202130460295FFF7D7FC00227C
:1039200020213046FFF73AFD0294094C6A464021B7
:103930002046FFF7CBFC012240212046FFF72EFD59
:1039400006B070BDE80300201438024000000240B9
:103950000004024001B582B04FF0FF300090012317
:1039600001AA02A90248FFF726F9BDF804000EBD1E
:10397000E803002010B586B014216846FCF738FC37
:103980002D482C492E4A01602C4B0021126803E07F
:103990005208491C072901D29A42F9D8302202EA7A
:1039A000C102C90700D008210A43C26100214FF4B7
:1039B0008272C0E9012101614161C16081624FF4FD
:1039C00000720162826141621E48016841F48051C7
:1039D0000160006800F4805005901748FFF7A7F8D1
:1039E00008B1FDF7C4FA0220019002900320039071
:1039F0000520154C04906A4620212046FFF766FCFE
:103A00006A4640212046FFF761FC6A468021204635
:103A1000FFF75CFC01200D4C019002906A464021AA
:103A20002046FFF753FC012240212046FFF7B6FC59
:103A300006B010BD00300140E803002080969800D9
:103A40002000002020380240000002400004024014
:103A500000BFFDE72DE9F05F00240D4692460746C2
:103A60002646A346102802D30320BDE8F09F2C4829
:103A7000006BC10703D0800601D40120F5E74FFA9F
:103A80008AF848F303018946B1EB281F0CDC08468D
:103A90000722002103F020FF30B14FEA281007224F
:103AA000002103F019FF00B90124032F14D21C4890
:103AB000703050F83700854200D00126194991F93D
:103AC0000110894500DD01244FEA28100722052155
:103AD00003F002FF00B9012413492846896A884788
:103AE00008B105B106B10126344201D00620BCE779
:103AF0000CB10520B9E70EB10420B6E70848012251
:103B0000703000EBC700C0E9005A80F805B00548E6
:103B10003038BA40818C114381840020A5E7000031
:103B20008C0000204C090020708C0008124910B550
:103B3000096BCA0703D0890601D4012010BDC11E3C
:103B40000D290CD20C4A0021703202EBC002116028
:103B500051600A490209042A01D8102801D3032020
:103B600010BD00F00F0431F812300120A040834353
:103B700021F81230002010BD8C00002040090020E8
:103B80002DE9F04117460A460546DDE90641194888
:103B9000089E447183711C0AC4711C0C04721B0EB4
:103BA000437281720B0AC3720B0C0373090E4173CB
:103BB000D4B2C4731048FDF711F839460E48FDF72A
:103BC0001EF810220B490C48FDF720F82246294622
:103BD0000948FDF71BF80849A1F58270FCF766FF5C
:103BE00006480178D0F8010041EA00203060BDE8C5
:103BF000F08100007C010020440B0020400A0020DE
:103C000070B500286ED00268002A6BD04268002A86
:103C100068D08268002A65D0334C00224FF47A764F
:103C2000C4E9150104F1150040F6B8310270E273E1
:103C30002263A2832D486274E2642265A27402703A
:103C40004270C0E901167100C16041F28831016122
:103C500041F270710125416105764276244A00F1F6
:103C60001403D2E90812C3E902120721818401F08A
:103C7000E7FD1E481F49303003F032FC1B48314637
:103C8000303003F0A0FC19481B49603003F028FCD9
:103C900016481A49743003F023FC14481849883038
:103CA00003F01EFC114817499C3003F019FC0F4823
:103CB00015494430194E016014498160144901616D
:103CC000144941601449C160B1688847F069804770
:103CD00004F04CFF2574284603F06AFB706B8047A4
:103CE000002070BD032070BD8C0000204C09002016
:103CF000E88D00084147000851500008514F000866
:103D0000C54F000809470008414E0008094900084E
:103D1000B14D0008154F0008F94D0008708C0008DF
:103D20002DE9F04105461C4617460E460C48FCF7A7
:103D300055FF39460A48FCF762FFF2B229460848A7
:103D4000FCF764FF0649A1F58270FCF7AFFE054859
:103D50000178D0F8010041EA00202060BDE8F08140
:103D6000440B0020400A00202DE9FF4184B00F469B
:103D70000446984606ADF02200211D480E9E04F030
:103D80003FFD1B4A1021204604F056FA1022002164
:103D9000684604F035FD01208DF800006C460622CF
:103DA0003946601C04F016FD02222946E01D04F08D
:103DB00011FD0F4A4146684604F016FA1022002110
:103DC000684604F01DFD02208DF8000006223946E9
:103DD000601C04F0FFFC02222946E01D04F0FAFCFE
:103DE000034A3146684604F0FFF908B0BDE8F081A7
:103DF000500A00202DE9F04117460E4605461C46A4
:103E0000F02200210C4804F0FBFC0B4A102138463C
:103E100004F012FA084A2146284604F0E5F9102E6B
:103E200008D304F1100105F11000BDE8F041024A89
:103E300004F0DAB9BDE8F081500A00202DE9F84F0E
:103E400004004FF002054FF000085DD03449086BC4
:103E5000C20702D18946C00602D50120BDE8F88F0D
:103E60004FF0000A8DF800A0102251462D4804F0B2
:103E7000C7FCDFF8B0B001208BF80100217821B138
:103E800001290AD003293DD11AE089F80B009DF8D9
:103E9000000020F0E000403009E089F80C00E07BF1
:103EA00089F80B009DF8000020F0E00080308DF8CC
:103EB000000094F80480A68994F90E50A7680BE0DE
:103EC00089F80B009DF8000040F0E0008DF800003C
:103ED000268994F90A50676899F8030040B90722C7
:103EE0000021284603F0F8FC70B10E48F838457000
:103EF00033463A464146684603F08CF8050005D043
:103F000089F804A02846A9E70320A7E704482178F8
:103F100015308BF80010017841F001010170F1E7D4
:103F20008C000020140A002030B5002390B10478E2
:103F300029492A4A182C4BD2DFE804F00E10131539
:103F4000171A1C1F2123262D30323436383A3C40B4
:103F500042444648032030BDC97B00E089780171A6
:103F600037E0C978FBE7496C00E0896C416030E0DC
:103F70001B49FBE71A491031F8E7097CEFE7497C58
:103F8000EDE715497031F1E714493C39D1E91621C3
:103F9000C0E901211DE011492431E7E7117EDEE788
:103FA0005168E3E79168E1E7D168DFE71169DDE790
:103FB0005169DBE7094930314978D0E75178CEE7DC
:103FC0001178CCE7496AD1E7896ACFE7096ACDE77A
:103FD0000223184630BD00008C0000201C09002080
:103FE000E005002070B504004FF0000506D04D48F4
:103FF00090F83010C90703D0012070BD032070BDB8
:104000002178494E172977D2DFE801F00C1D2023D3
:1040100026292E3438893B424A505356595D606CEC
:10402000778386002179C17321B1012978D00229D3
:1040300076D103E03D48406B804771E0002101717B
:1040400000F0C0FF6CE02179817069E02179C170D6
:1040500066E06168416463E06168816460E06168B2
:1040600081B31022324818E0616859B330481022F9
:10407000103012E0207903F09BF951E0217941746E
:104080004EE02948D4E901123C38C0E9161247E055
:104090006168B9B124480222243004F09BFB3FE060
:1040A0002079411E0E2932D8307639E06068706080
:1040B00036E06068B06033E06068F06030E060680F
:1040C00030612DE023E06068706129E094F904001C
:1040D0000722002103F000FCC8B1134920793031D8
:1040E00048701DE094F904000722002103F0F4FB5E
:1040F00068B12079707013E011E094F90400052292
:10410000002103F0E9FB10B12079307008E00325AD
:1041100006E06168416203E06168816200E00225B7
:10412000284670BD8C0000201C090020708C0008FF
:10413000E00500202DE9F84306004FF0020759D0B2
:10414000374C94F83000C00714D10C2200213548B8
:1041500004F056FB334801214FF0000841703178DC
:1041600004F1150511B101293BD14DE094F830203F
:10417000D20602D50120BDE8F88301707168C1B391
:10418000B068B0B3F268A2B32B7843F004032B708D
:104190002264C4E90E108DF8008001F051FBA08B61
:1041A0000021401C80B23022B0FBF2F302FB13026C
:1041B000A08362B1C1061FD01821B0FBF1F201FB50
:1041C0001201D9B101071BD040071BD005211648A9
:1041D00000231A4641701946684602F01BFF07008B
:1041E00005D084F80480287820F004002870384630
:1041F000C1E7FFE70320BEE70121E8E70221E6E788
:104200000321E4E70421E2E72978002241F00401D8
:1042100029703178017011460220FCF749FDDEE774
:104220008C000020240A00201C090020FEB508AFE5
:1042300097E870008DE8700000F002F8FEBD000005
:104240002DE9FF5F0D46DDE90F8A814600261F46F6
:104250000124F02231462C48DDF838B004F0D0FAC1
:10426000294A1021029803F0E7FF2848390A80F80C
:1042700005B08771C171390C0172390E417280F835
:104280000A804FEA1821C1724FEA184101734FEAC0
:1042900018611D4F4173203F804619E088F80F4098
:1042A000194A641CA4B2A2F12001184803F09CFF33
:1042B000002031183B5C19F80120401C5A4080B2A4
:1042C0000AF801201028F4D3103D1036ADB2F6B232
:1042D000102DE3D2002D14D00B4A88F80F40A2F124
:1042E00020010A4803F080FF002008E031183B5C01
:1042F00019F801205A40401C0AF8012080B2A84257
:10430000F4D3BDE8FF9F0000500A00208C0100207C
:10431000F8B5074619481A4D0C0040788DF8000092
:10432000E879297A0844C6B208D06A460021E878BC
:10433000FCF704FD687C18B1124803E00320F8BDC7
:10434000104808389DF90010405C6070B04213D3EB
:10435000801B207000229DF90010384603F0A6FA59
:1043600040B132469DF90010384603F09FFA18B16B
:104370000020F8BD0820F8BD0920F8BD4C09002038
:104380008C000020FE8D0008417902290ED10179B0
:1043900001290BD100680649007810F0010008706F
:1043A00002D004A004F00ABC04A0FBE770470000A0
:1043B0002C0000204C4544204F4E0A004C45442020
:1043C0004F46460A000000002DE9F04786B004463B
:1043D0008A466846FCF7DCFC2B4D01982946FBF722
:1043E00012FFFCF73DF9814629460098FBF70BFFC9
:1043F000264D2946FBF739FFFCF74BF98046294645
:104400000298FBF700FFFCF744F9DDE90376054667
:10441000FEF7C8FF02460220607100218AF80010F2
:104420001B4823680078187023684FEA18205870DA
:1044300023684FEA192083F802802368D870236824
:10444000280A83F8049023685871236810469D71E8
:104450002268D0712268380C10722268380A5072B3
:10446000206887722268300CD0722268300A10737C
:1044700020684673206881732068C1731020207102
:1044800006B0BDE8F08700000000C84200002041EF
:104490002C000020EFF3108172B6034A1368034327
:1044A00081F31088136070479C010020EFF31081A6
:1044B00072B6034A1368834381F310881360704710
:1044C0009C01002001480068704700009C0100200A
:1044D00070B50C484FF400440460651005600A484C
:1044E000084E0068103E18B1FEF762FE356070BDE0
:1044F000FEF762FEFEF776FE3460BDE87040FFF71F
:1045000099B90000280402409C010020802826D090
:1045100010DC08281FD006DC012816D0022816D08F
:10452000042810D115E0102817D0202817D04028D3
:1045300009D114E0B0F5805F05DAB0F5807F0ED0C8
:10454000B0F5007F0BD02820704706207047072069
:10455000704708207047092070470A2070471720CD
:104560007047000001490120487070475400002046
:10457000F0B5417887B0002960D1484991F800C072
:10458000BCF1010F02D18A89521C8A81427B012A27
:1045900054D1434CC27804F12003E02A1E680ED0A7
:1045A0005A71027B1A718168304604F013F9E06891
:1045B000016907B004F12000BDE8F040084700227F
:1045C00001250227BCF1000F0ED0D0F808C09CF8DE
:1045D00000C081F801C0BCF1070F2FD2DFE80CF05A
:1045E0002330323437484E00067B042E26D18068B3
:1045F0000678012E22D14678012E1FD18678012E11
:104600001CD1C078012819D1A270E02058711F7107
:104610008A818A73CA730A740D704D708DF80070A8
:104620008DF8045007E08A810A708DF80070606888
:10463000407A8DF804006846FFF7D4FC07B0F0BD5F
:104640001F71FBE7A57000E0A2704D70F6E7017BDB
:10465000197104213170012106E082681C68525CE6
:10466000521C6254491CC9B21A798A42F5D8E5E74E
:104670008DF80C5003A8FFF75DFDDFE708488DF8C3
:104680000C2010300490083005901030069003A8DC
:10469000FFF750FD05202070D0E70000CC0500207A
:1046A00054000020FEE7000010B541780B4B0122BA
:1046B00089B9017811B101290DD103E002201870E8
:1046C0005A7008E006490C78012C04D18A73047AE8
:1046D000CC73407A08745A7010BD0000540000205A
:1046E000CC05002070470907090E002806DA00F003
:1046F0000F0000F1E02080F8141D704700F1E02069
:1047000080F800147047000010B50B4802F0A4FFB9
:104710000A48017929B101214173016B21F004019B
:104720000163C07B022805D104481530017841F0AF
:104730000801017010BD0000E80900208C00002075
:104740002DE9F0416E4802F087FF6E4D0023A5F180
:1047500015042878010767D5216B4A0602D521F098
:10476000410121636649420701F1A801A1F1100846
:104770004FF0000601D4C20711D098F801704246EC
:10478000022F02D04F78022F09D1236B23F00103AF
:104790002363237B537116710123C8F808602279C3
:1047A000574F1A43A7F1600725D1420708D50A7869
:1047B00042B96672497829B9397E6172666201E050
:1047C000C10718D0397E627A914201D981070DD58F
:1047D0006672E06A401CE062207810B9606A401C92
:1047E0006062206B20F00100206304E020F00800EC
:1047F000287002F0D3FB2978880716D598F8042092
:10480000012A03D0227BE37A9A420ED9667326717D
:10481000217811B9616A491C6162217B88F8051011
:10482000206B20F0010020632FE0607B68B3226BD7
:10483000D0062AD46673207BE37A984214D20828E3
:1048400012D8401C2073C00708D097F90100421EFF
:10485000002A01DD401E00E00020787021F00800F1
:10486000287002F09BFB10E0B98C41F00701B9847D
:1048700022F001012163267188F8046088F80500A0
:10488000207810B9606A401C6062206B810702D5F5
:1048900020F002002063A8B14FF47A71184802F0AA
:1048A00092FE174802F0A0FE2878800708D5606DB8
:1048B0004168134880308847287820F0020028702B
:1048C000BDE8F0812878C00708D0606D01680C4809
:1048D00098308847287820F0010028702878400711
:1048E00008D5606D81680648A8308847287820F090
:1048F00004002870287820F008002870D4E7000011
:104900007C090020A10000202DE9FF4F0546002072
:1049100093B00E4601461190814607460690F7482F
:10492000049010300A90002010900F90F448A0F1ED
:10493000180A0171AAF80E20169A8AF81020F14A76
:10494000937B8AF811308AF803108AF802108AF8EB
:104950000510CAF808108AF80C108AF80D108AF8A9
:104960001210CAF814108AF80010D07B022802D066
:10497000E548406B8047E248403802F06DFE2878F9
:104980000E9080464109301F741E4FF0050B0D90AC
:10499000012911D04FF0030803297BD0052979D0D4
:1049A000072978D001208AF8010000F0EBFCD548F7
:1049B000817B002970D0E8E1D24881780029F6D1C6
:1049C000D24F8146026CA1B27B1C681CFFF712FA21
:1049D00087F800800D9806AB81B23846D9F84020A0
:1049E000FFF79EF9B81907F2262A10F8041D42783D
:1049F00041EA02218278C07841EA024141EA00603E
:104A00000699884269D1A7F20E200090BB4B4D4613
:104A1000B9F81820B8463E46791CD9F84000FFF78F
:104A2000A3F93079717940EA0120B17940EA014077
:104A30006864F079317A40EA0120717A40EA0140F5
:104A4000B17A40EA0160A864F17A07F58F70C1F38A
:104A50000212427601F00F0180F82010317B11F034
:104A60000F01816001D1012181604FF47A725143BD
:104A7000816001F57A710746C160102C23DD502159
:104A800061F307008146286B032440F020000026D4
:104A9000286302E024E063E172E108EB06004A4685
:104AA000D0F80D0020F07F41642041432046FEF7FE
:104AB000D1FF641CF61CE4B2F6B2082CE9D3286BD3
:104AC00020F02000286300208AF801000120A8704F
:104AD0008B48C8384178797069E78AF801B066E791
:104AE0006878A978874A40EA0120E97840EA0140DD
:104AF000297940EA01610391926C05209142814934
:104B000019D00F6A0CE03A6803998A4207D1012153
:104B10001091391D049110310A917C6A0CE0BF6A32
:104B2000002FF0D15FF008018AF8011000F02AFC94
:104B300017B0BDE8F08F8C6A295C401C88462A5C5F
:104B4000401C285C42EA002201F00F0000F1080B33
:104B5000A81910F8041D437841EA090141EA03212C
:104B60008378C07841EA034141EA00600890101B55
:104B70001FFA80F906A8B9F5004F14D201214C4460
:104B80000091CDE901400D98DDE9033281B228465C
:104B9000FEF7F6FF069908984FF48042884218D134
:104BA000914518D220E00FFA89F16618012106F527
:104BB00080360091CDE901600D98DDE9033281B2C4
:104BC0002846FEF7DDFF06990898884203D134464F
:104BD00001E0914505D307218AF80110CAF8144075
:104BE000A4E70F9800287DD000218AF80110109AC0
:104BF0008AF80220C8F300128AF80520CAF80810C3
:104C0000DFF8FCC08AF80C103E48CAF814408CF853
:104C10000110C1620172109A4FF006095AB10223C5
:104C20008AF800307B6AA34203D113B18AF801905D
:104C30007CE77C6218E00E9A0523B3EB521F0AD181
:104C4000012242718AF80020826AA2420BD152B13D
:104C50000122119207E041718AF80010836AA34291
:104C600001D1002BE2D184625FEA886205D5012080
:104C70008CF804008AF8120005E08CF80410017B1F
:104C8000C07A814203D91E482C3802F0E5FCA6EB1D
:104C90000B00001F00284EDD0BF10107F11B15F87A
:104CA0000B00091F8AF803000028CEB24FEA0870F3
:104CB0002ED038B116980821C3B2781EC2B2284649
:104CC00000F0BCFBDFF844804FF00109CDF8009004
:104CD000CDE90148E8193146039B0A9AFFF7A6FA85
:104CE000119800E03AE000287FF4F6AECAF8088098
:104CF0008AF80C608AF80D902AE00000E005002098
:104D0000140A00208C000020708C0008FE07002090
:104D10000028E9D1012123480091CDE90140DDE9D6
:104D20000332E8193146FFF781FA16983246C3B2CA
:104D300000211C4807E05FEA087006D016985A4622
:104D4000C3B20821284600F079FB11980028CBD186
:104D50001548017841F00201017028E60921E3E6D7
:104D6000691C32460F4803F035FD8AF800800021A7
:104D70008AF801100B49CAF808108AF80C40E7E7D6
:104D8000C07B022801D100F01DF90748017841F0ED
:104D9000080101700121054802F015FC034802F0EA
:104DA00023FCC5E6FE070020A10000207C090020AE
:104DB00010B50E4CE07B022803D00D48406B8047B5
:104DC00001E000F0FFF8A07B01280DD1217904203B
:104DD00009B1084948700749103148700348153037
:104DE000017841F00801017010BD00008C00002026
:104DF000708C0008140A002010B50E4CE07B0228CD
:104E000003D00D48406B804701E000F0DBF8A07B49
:104E100001280DD12179032009B1084948700749BB
:104E20001031487003481530017841F008010170D5
:104E300010BD00008C000020708C0008140A0020B7
:104E400070B502F039FB304C0546E07B022803D0F8
:104E50002E48406B804701E000F0B4F82A49E07C1E
:104E60002075703101EBC0000C394079284E00EB01
:104E7000400001EB80004560E5646078002558B390
:104E8000A6F15400E16D02F09EFBA6F1540002F081
:104E9000ABFBE07B02280DD0A6F14000216E02F0B2
:104EA00092FBA6F1400002F09FFBE07B022801D0BC
:104EB000207918B34FF47A71484203F0CBFD216E8C
:104EC0000144134801F5FA612C3802F07CFB1048CC
:104ED0002C3802F089FB0EE00D497570103103206B
:104EE000487009481530017809B901210170C9B22B
:104EF00041F0080101702079002803D17570607AB3
:104F0000401C607270BD00008C000020708C000896
:104F1000140A00200B4810B5C07B022803D00A48B1
:104F2000406B804701E000F04DF8084902204870CE
:104F30001031487003481530017841F008010170C4
:104F400010BD00008C000020708C0008140A0020A6
:104F5000F8B505240026184802F07EFB174D0027FF
:104F6000AF73E87B022802D11548806B8047124856
:104F7000A4384178407E081A41B2002901DA0021A4
:104F80000EE0032906D0042904D0052904D00629FF
:104F900004D005E0082403E00A2401E001260E24E1
:104FA00006480097EA7C7030234650F832003246BB
:104FB00000F0D2FCF8BD0000C00900208C000020E9
:104FC000708C000838B505240025144802F044FB15
:104FD000134A12480123B838937390F8201003291C
:104FE00006D0042904D0052904D0062904D005E000
:104FF000082403E00A2401E001250E24D17B0229C4
:1050000002D00021009100E0009390F92010C069C7
:1050100023462A4600F0A0FC38BD0000D409002039
:105020008C0000203EB501248DF800406846FEF754
:105030007BFF002805D19DF804100448012901D008
:1050400004703EBD0321017044703EBD5400002039
:105050000EB5124802F000FB1149086B20F0100059
:10506000086301F115000078400713D50B4878302C
:10507000007878B900208DF80400CA78014662F300
:10508000C7118DF8081003460246009002A901A836
:1050900000F014F801F082FF0EBD0000AC09002002
:1050A0008C00002010B5034802F0D6FABDE810408D
:1050B000FFF7B8BFA0050020704700002DE9FF5F93
:1050C0000F460021AB4C0E9E0391E182B3F1000923
:1050D000F5B29246217100D10026DFF89C82027859
:1050E00008F5477188F8002000780122400909D0AE
:1050F000022846D0042842D007287CD0022004B0E1
:10510000BDE8F09F08694546401EE0654869401EBD
:105110002066E282681C0822E16B03F065FBE08AEE
:105120000822083080B2E0822844A16B03F05CFBC7
:10513000E08A0830E0829148C069804701462083B8
:10514000E08A03AB2954401C80B2090A2954401C50
:10515000E082C1B28848226CFEF7E2FDE08A039942
:105160002954401C80B20A0A2A54401C80B20A0CFE
:105170002A54401C80B2090E2954401CE8E001204A
:1051800020717C488078002860D038788B460C46A7
:105190004A1CC0090121FBF7D1FD397860F3861163
:1051A000397094F90110734CF0B2E27902F07EFB91
:1051B000F0B3DBF80810491EE165DBF80C00401E77
:1051C0002066607928B100206071387840F02000B6
:1051D0003870A16C88F801100A0A88F802200A0CBD
:1051E00088F80320090E88F80410397888F805102B
:1051F000C346A18C00E0B0E088F80610090A88F8E0
:105200000710DFF87C81E179082608EB0100227A9B
:1052100008F10F0103F0DEFAE079217AB9F1000F0D
:105220000844C1B2E1711ED0EDB10F2923D800E0CE
:105230000EE0A079F8B138784346421862F30300D3
:1052400038708BF805005A46002009E0072056E721
:10525000082054E71F5C9755761C401CF6B280B2BC
:105260008842F7D307E031B1A07920B1DFF810917F
:105270000D464FF0000A4FF00008414F84F80680B9
:1052800007F10F03424640461FE000BF17F802C077
:10529000BCF1050F03D0BCF1080F14D10FE003F8E7
:1052A00000C0521CD2B2401C17F802C0C0B2521C3F
:1052B00003F800C0D2B2401C17F802C0C0B203F815
:1052C00000C0401CC0B2521CD2B28A42DED320724F
:1052D00008B10120A07184F80780B9F1000F1CD03B
:1052E000DDB10BF806A02448616AFF30CDF80080DC
:1052F000CDE90110761CA36CF6B2BAF1000F29D0EB
:10530000A0F20F1229464846FEF79AFF1A490BEB06
:1053100006002A46FF3103F05DFA7119E182626AE4
:1053200003A8CDF80080CDE90120134A1248203AA5
:10533000A36CFEF725FCE08A03990BEB00020BF847
:1053400000100B0A53700B0C090E9370D170001DE6
:10535000E0820CE0084A203AD4E743B13EB108F1BC
:1053600001003246494603F035FA761CE6820020F9
:10537000C5E600008C00002000060020708C0008AC
:10538000FD08002010B50F4C206B40F0400020635A
:10539000207908B1FFF7B8F9A07B20B9E07B02289B
:1053A00001D1FFF70FFE07481530017841F00A01DF
:1053B00001700121044802F006F9BDE810400248DE
:1053C00002F012B98C0000207C090020194830B48A
:1053D0000178012908D018481749C068891CC2689B
:1053E00030BC01F11E0010471349847B203101239A
:1053F0000A68012C07D04478012C11D0042C00D16C
:10540000437030BC70470024847303240C7105245E
:1054100014700C68C27B62700968027C8A70EFE7C6
:1054200002230B7183891B0A13700968007B487083
:10543000E7E70000CC050020540000202DE9FF4FD5
:1054400087B017460C4605464FF0000ADFF8009378
:105450004FF0010BDFF8FC8273E1285D641C801EB5
:10546000E4B207286FD2DFE800F00410BBC8FDFCEF
:10547000FB00B94880F801A0295D0172641CE1B20B
:105480006A5C491C4272CCB25BE10726CDF804A0ED
:10549000CDF808A0002001A9CDF80CA008EB40022F
:1054A000928C21F81020401CC0B20628F6D3285D4B
:1054B000641C00F00F01C0F303100091049099F8F0
:1054C0000300E4B288B998F9012004998A4204D112
:1054D00098F900100098814207D00022114603205D
:1054E000FBF7E6FBE01CC4B22BE1601CC0B2295DF7
:1054F0002A5C401C41EA0222C1B2685C491CCCB261
:10550000C0F3021110F00F00059001D101200590A9
:1055100051EA020004D0481E042801D9072902D309
:1055200006F0FE0624E08A4B0020703306290BD0DB
:105530000BFA00FC1CEA020F14D053F830C0BCF187
:10554000000F0DD00EE0FFE053F830C0BCF1000FAB
:1055500008D00BFA00FC4CEA020C1FFA8CF201E0B6
:1055600006F0FE06401CC0B21028DFD3ADF80420C0
:1055700007220021049802F0AFF908B906F0FD06F1
:1055800005220021009802F0A7F908B906F0FB06F1
:10559000F043400720D1049988F80110009988F859
:1055A0000010BDF80410A8F82410BDF80610A8F8E3
:1055B0002610BDF80810A8F82810BDF80A10A8F8A1
:1055C0002A10BDF80C10A8F82C10BDF80E10A8F881
:1055D0002E10059988F81810002231460320AEE0FD
:1055E000285D641C89F80A000BFA00F2A9F81A2059
:1055F0000022E4B211460420A1E0285D641CC0F33F
:10560000021100F00F00CDE90001E0B20726295C8D
:10561000401CC0B22A5C401C41EA0222C1B2685C54
:10562000491CCCB242EA0040642148434B490290F5
:10563000896A884700B9062607220021009802F0EF
:105640004BF908B906F0FD0605220021019802F089
:1056500043F908B906F0FB06F04340070CD102E01D
:1056600059E018E00CE0009988F820100299C8F879
:105670001C10019988F819100022314605205EE0BF
:10568000D9F85810FF2011B1096801B188470146C7
:1056900006200A9A53E0032000902857641CE1B2C8
:1056A000D9F830606B5C491CC9B246F020066C5CCE
:1056B000491C43EA0424CBB2E95C5B1C44EA014187
:1056C000DBB264246143EC5C03F1010364F3070281
:1056D000DCB2C9F8306008D0C0B2FEF7BBF980B1C7
:1056E00004280AD0052806D109E0032803DBC0B24C
:1056F000FEF71CFA28B1002002E0022000E00120A1
:105700000090D9F83010002221F02001C9F83010A3
:105710000720009913E0285D04F1010410F00F0048
:10572000E4B200D101204FF47A714843C8F8080070
:1057300000F57A700022C8F80C0011460820FBF72B
:10574000B7FABC42FFF489AE0BB0BDE8F08F0000A1
:105750008C0000201C090020240A0020708C000806
:10576000F8B507461A48002600681A4D10F0F00FE9
:1057700020D1174C1C342068C00002D5FBF77EFFF7
:105780000DE0206840F080502060206800F08050DC
:105790000090FBF773FF216821F080512160B0F584
:1057A000C05F07D1B7F5404F04D12868012640F00B
:1057B00004002860286820F0010030432860286831
:1057C00000F00100B04201D00120F8BD0020F8BD7A
:1057D00008380240003C0240FDF700BF010901EB20
:1057E000810100F00F0000EB4100C0B270470021C2
:1057F00002E00A38C0B2491C0A28FAD2090740EA76
:105800001160704770B504460068C168490614D439
:105810004FF0FF31C160FBF79DFE05464FF47A76ED
:1058200007E000BFFBF796FE401BB04201D9032002
:1058300070BD2068C0684006F4D5002070BD00002F
:1058400070B51F4C00250120A570C4E90905E5626B
:105850006572E07220736573A5726083E5712572CD
:1058600060701848A0F1300102780A7042784A70DE
:1058700042684A6082688A60C268CA6002690A61D6
:1058800042694A61427E4A76007E0876A1F13C0078
:1058900000F18002D2E90212C0E9161200F1900173
:1058A0000C22603002F096FF25716571A571206AA7
:1058B00001E04562806A0028FBD11020E07470BDD1
:1058C0008C0000204C09002070B5092000F051FD2B
:1058D0000546062000F04DFD0404072000F049FDB8
:1058E00044EA0024082000F044FD0443220AA4EB0B
:1058F000022343F6095043434243803302EB13240F
:105900000021092001F01CFB3B2000F032FD40F09B
:1059100040013B2001F014FB3B2000F02AFD8006F3
:10592000FAD40C4800F04CFE3B2000F022FD40F081
:1059300040013B2001F004FB3B2000F01AFD8006F3
:10594000FAD42946092001F0FBFA2046BDE8704050
:1059500000F036BE00A1BC332DE9F04F80462F4841
:105960000D462F4C8BB0465DE0689A469346149FD7
:10597000804700284FD161694046884729484FF049
:10598000010805710020072D19D009970690CDE96F
:105990000708CDE902A008210590CDE90001049097
:1059A0004FF00109D4F820C04B46324659464046D4
:1059B000E0471D48407CD0B11848103019E00690EF
:1059C00005211A4ACDE90021CDE90807CDE90408EF
:1059D00007904FF47A714FF000090290039006FB94
:1059E00001F24B464CF25031D4F820C0E0E70B48AE
:1059F0000830E26D405D0D30C1B2484690472FB18E
:105A0000E16B00200BB0BDE8F04F08470548E16BA3
:105A1000E0384068F6E70BB0BDE8F08FEE8D000887
:105A2000708C0008FC0900208C00002085450100D6
:105A30002DE9F0471D4690460E460446FBF78AFDC9
:105A400007465FEA08004FF000084FF4005A4FF095
:105A5000010926D034E0681C23D025B1FBF77AFD7C
:105A6000C01BA8421DD92068416821F0E0014160B7
:105A70002068016821F040010160A06A504509D109
:105A80002068016821F4005101602068016841F438
:105A90000051016084F8519084F850800320BDE8E3
:105AA000F0872068806836EA0000D4D10DE0681CD9
:105AB00006D0002DD7D0FBF74DFDC01BA842D2D891
:105AC0002068806836EA0000F1D00020E7E77047E0
:105AD000012070470020704701480079704700009E
