:020000040800F2
:10000000380A002039010008D9340008F13300080B
:10001000D73400089D080008A75100080000000020
:100020000000000000000000000000002F38000861
:1000300021090008000000001D360008FB4C0008E4
:100040005301000853010008530100085301000840
:10005000530100085301000827090008630900083C
:10006000690900086F0900087509000853010008B4
:100070005301000853010008530100085301000810
:100080005301000853010008530100085301000800
:100090005301000853010008530100087B090008C0
:1000A00053010008530100085301000853010008E0
:1000B00053010008530100085301000853010008D0
:1000C00053010008530100085301000853010008C0
:1000D00053010008530100085301000853010008B0
:1000E0002D09000899360008530100085301000843
:1000F00053010008000000005301000853010008EC
:10010000530100085301000853010008530100087F
:1001100053010008530100085301000800000000CB
:1001200053010008DFF80CD000F0A6FB00480047A0
:10013000415C0008380A002006488047064800470E
:10014000FEE7FEE7FEE7FEE7FEE7FEE7FEE7FEE787
:10015000FEE7FEE78D4D0008250100082DE9F05F60
:100160000546002092469B46884606468146402426
:100170001BE0284641464746224600F08AFA53468D
:100180005A46C01A914110D311461846224600F033
:1001900071FA2D1A67EB01084F4622460120002113
:1001A00000F068FA17EB00094E41201EA4F101048B
:1001B000DFDC484631462A464346BDE8F09F000052
:1001C0000649074A0868504343F239021044086060
:1001D0004008704701490860704700004400002053
:1001E0006D4EC64140EA01039B0703D009E008C9F0
:1001F000121F08C0042AFAD203E011F8013B00F8EC
:10020000013B521EF9D27047D2B201E000F8012B37
:10021000491EFBD270470022F6E710B513460A4686
:1002200004461946FFF7F0FF204610BD2DE9FE4FAA
:10023000804681EA0300C00F0C46009021F0004187
:1002400023F00045B8EB0200A94105D24046214603
:1002500090461C460B46024623F00040104347D010
:10026000270DC7F30A00C3F30A510290401A019008
:1002700040286BDAC3F3130040F4801B00989246C9
:1002800020B10023D2EB030A63EB0B0B0198594614
:10029000C0F14002504600F0EDF906460D465046CA
:1002A0005946019A00F005FA10EB0800614100245C
:1002B00087EA115284EAE7731A4340D0009A62B386
:1002C000019A012A4FEA075215DC001B61EB02017B
:1002D0004FF0004202EA0752CDE90042001C41F50E
:1002E000801132462B4600F005FA03B0BDE8F08FCE
:1002F00040462146F9E7001B61EB0201001C41F575
:10030000801300185B412018A2F5001747EB03018A
:1003100040EAD570B6196D4111E06D084FEA360616
:1003200045EAC0754FEA0752001B61EB0201001C51
:1003300041F5801149084FEA300000195141324619
:100340002B4603B0BDE8F04F00F0C5B9009801227C
:1003500040000023D0EB020263EBE07300982146DB
:100360004FEAE074B8EB000061EB0401E9E783F0C9
:1003700000435BE781F0004158E72DE9FE4F81EA39
:10038000030404F0004421F0004100944FF0000BFE
:1003900023F0004350EA01045ED052EA03045BD02C
:1003A000C3F30A54C1F30A552C44A4F2F334019464
:1003B000A0FB0254C1F3130141F48011C3F31303F2
:1003C00043F4801301FB024400FB034E840A970AA6
:1003D00044EA815447EA8357A4FB076802958D0AD3
:1003E00005FB07854FEA932C04FB0C542705029D5F
:1003F0004FEA065847EA1637B5EB08056EEB070CCF
:10040000870E920E47EA811742EA8312A7FB020188
:10041000B6EB0B0164EB00042B0D43EA0C335E18C2
:1004200044EB1C50DA465146E7FB0201C5F31304C6
:100430004FEA0B3343EA14534FEA0432019C43EA78
:100440000603A4F10C040294009CCDE900B400F072
:1004500051F903B0BDE8F08F00200146F9E72DE91E
:10046000F04D81EA030404F0004B21F000451446EE
:100470004FF0000A23F0004150EA050220D054EA70
:1004800001021DD0C5F30A570246C5F31303C1F399
:100490001300C1F30A5640F4801543F48013A7EB10
:1004A0000608101BD64608F2FD3873EB050002D390
:1004B00008F1010801E092185B41B8F1000F03DA7E
:1004C00000200146BDE8F08D00204FF48011064663
:1004D00084460EE0171B73EB050705D3121B63EB75
:1004E000050306434CEA010C49084FEA3000921814
:1004F0005B4150EA0107EDD152EA030012D082EAD3
:10050000040083EA0501084305D0101BAB4106D265
:100510000122002306E000224FF0004302E06FF0CA
:10052000010253101AEB06004CEB085110EB0A00C5
:1005300041EB0B01BDE8F04D00F0CDB870B521F0F6
:10054000004303430CD0C1F30A550024D5EB040546
:1005500064EB0403D617AD1AB34102DB0020014659
:1005600070BD201841EB025170BD0EB5C10F80EA7D
:10057000E0700844CA07002140F233438DE80E00C2
:100580000A460B4600F0B6F803B000BD0EB540F2C7
:10059000334102910021CDE900110A460B4600F0DB
:1005A000A9F803B000BD70B5C1F30A5201F00045CF
:1005B0000024C1F3130140F2FF3341F480119A4249
:1005C00001DA002070BD40F233439A42A2F2334276
:1005D00003DC524200F05DF800E090402C43F1D083
:1005E000404270BDC1F30A5210B5C1F3130140F28D
:1005F000FF3341F480119A4201DA002010BD40F22D
:1006000033439A42A2F2334203DC524200F041F8F3
:1006100010BD904010BD000030B5041E71F1000403
:1006200004DB4FF00044404264EB0101141E73F1FF
:10063000000405DB1C464FF00043524263EB040309
:10064000994208BF904230BD30B50B4601460020AC
:100650002022012409E021FA02F59D4205D303FA84
:1006600002F5491B04FA02F52844151EA2F1010205
:10067000F1DC30BD202A04DB203A00FA02F1002030
:1006800070479140C2F1200320FA03F319439040D0
:100690007047202A04DB203A21FA02F0002170473B
:1006A00021FA02F3D040C2F12002914008431946DA
:1006B0007047202A06DBCB17203A41FA02F043EAC2
:1006C000E07306E041FA02F3D040C2F1200291400B
:1006D00008431946704710B5141E73F1000408DA78
:1006E000401C41F1000192185B411A4301D120F0F6
:1006F000010010BD2DE9F04D92469B4611B1B1FAB3
:1007000081F202E0B0FA80F220329046FFF7B2FFA9
:1007100004460F4640EA0A0041EA0B0153465A4696
:10072000084313D0114653EA010019D0C8F1400222
:100730005046FFF7AEFF05460E4650465946424624
:10074000FFF798FF084305D0012004E02046394612
:10075000BDE8F08D0020054346EAE0762C433743A0
:100760000A986305E40AA0EB08000022FD0A44EAA7
:1007700047540A3002D500200146E9E70105101967
:100780006941DDE9084500196941BDE8F04DA2E77E
:100790002DE9F041054621F000400C46284309D0E0
:1007A000C4F30A5040F23341884205DD2846214611
:1007B000BDE8F0812846FBE740F2FE31884210DCBC
:1007C0000CDB4FEA043040EA155050EA053105D001
:1007D000104804F0004101430020E9E700200146F1
:1007E000E6E7A0F233404642C6F1400228462146E1
:1007F000FFF740FF07468846284621463246FFF766
:1008000048FF43463A46FFF766FF3246BDE8F041EF
:10081000FFF730BF0000F03FC1F30A52C1F31301EC
:1008200040F2FF3341F480119A4202DA002001467F
:10083000704740F233439A42A2F2334202DC524202
:10084000FFF727BFFFF716BF30B5041E71F1000494
:1008500004DB4FF00044404264EB0101141E73F1CD
:10086000000405DB1C464FF00043524263EB0403D7
:100870008B4208BF824230BD064C074D06E0E0685F
:1008800040F0010394E8070098471034AC42F6D3D7
:10089000FFF74CFC7064000890640008FEE700005D
:1008A00010B586B014216846FFF7B5FC1A480168F8
:1008B00041F0020101600068184C00F00200059050
:1008C000012001900290032003904FF470400090AB
:1008D0006946204600F014FA0022A114204600F0D8
:1008E000F0FA00224FF40051204600F0EAFA00220C
:1008F0004FF48041204600F0E4FA00224FF400411A
:10090000204600F0DEFA00F0CFF900F0DDF900F04B
:10091000D3F906B010BD00001C38024000040240AC
:10092000704702F077BA012000F0DEB910B54FF43D
:10093000806000F0D9F94FF4006000F0D5F94FF471
:10094000805000F0D1F94FF4005000F0CDF94FF491
:10095000804000F0C9F9BDE810404FF4004000F0BD
:10096000C3B9022000F0C0B9042000F0BDB90820CE
:1009700000F0BAB9102000F0B7B910B5202000F08F
:10098000B3F9402000F0B0F9802000F0ADF94FF449
:10099000807000F0A9F9BDE810404FF4007000F03D
:1009A000A3B9000001A005F08FFCFEE74572726F4D
:1009B000725F48616E646C65720A0000094A00212A
:1009C00052F83130834208D802EBC1039B6883425E
:1009D00003D902EBC10000797047491CC9B215293F
:1009E000EED3FEE788630008F8B50024009490F881
:1009F00048202546012A12D0012280F848204A6862
:100A00001F23072A0DD207683E6C521E02EB82029A
:100A100093409E430B6893401E433E6435E00220A2
:100A2000F8BD0D2A0BD20668F76BD21F02EB8202CB
:100A300093409F430B6893401F43F76325E0132ABD
:100A40000BD20668B76B0D3A02EB820293409F43CC
:100A50000B6893401F43B76317E00668192A0AD250
:100A6000776B133A02EB820293409F430B689340EB
:100A70001F43776309E0376B193A02EB8202934018
:100A80009F430B6893401F4337630A6807230A2A72
:100A90000AD20668776902EB420293409F438B6853
:100AA00093401F43776125E0142A0BD207683E6903
:100AB0000A3A02EB420293409E438B6893401E43E6
:100AC0003E6117E007681D2A0AD8FE68143A02EB57
:100AD000420293409E438B6893401E43FE6009E0B0
:100AE000FE6D1E3A02EB420293409E438B68934098
:100AF0001E43FE650A68102A01D0112A17D10E4A3A
:100B000013681B0213D4136843F4000313600968CD
:100B100010290CD109490A4A0968B1FBF2F101EB2D
:100B20008101490000E0491E00910029FBD180F8B5
:100B300048502046F8BD0000042701402000002056
:100B400040420F00F8B504004FF0000504D094F8BF
:100B50004900002610B10FE00120F8BD4C4884F890
:100B60004860016841F001010160006800F0010087
:100B70000090204600F096F8022184F8491045487C
:100B80000268636822F440321A4302606269E068D6
:100B90000F02104397FAA7F7E36BB7FA87F7226AB9
:100BA000BB401A43104391FAA1F1626AB1FA81F194
:100BB00002FA01F10843616B102902D0A36B1943BB
:100BC0000843236819684FF48077C94349062ED536
:100BD000A169D4F81CC00843A16841EA0C01D4F80B
:100BE00010C0BC450CD0BCF1010F09D04FF0000E75
:100BF000D4F82CC041EA0E01BCF1010F02D00FE085
:100C0000BE46F5E762B94FF4604C226B9CFAACFC2F
:100C1000BCFA8CFC521E02FA0CF20A4342F4006148
:100C20005A68DFF874C002EA0C020A435A6022686C
:100C300091681A4B1940014391602169B9422168BA
:100C40000A6B0DD122F0F8734FF0F877A26A97FA89
:100C5000A7F7B7FA87F7521EBA4013430B6302E0B7
:100C600022F0F8720A63216889680D4A11408142B6
:100C700004D1E664012084F8490007E0042084F8E8
:100C80004900E06C40F00100E06401252846F8BD11
:100C90002038024004270140FF16FCFC89F1FFC008
:100CA000FEFF80BF704700000248416841F001012B
:100CB00041607047002004E00248416841F00401AF
:100CC00041607047002004E00248416841F00201A1
:100CD00041607047002004E011B4009818BCFFF791
:100CE00020BE02F051B80000044910B50A68024263
:100CF00002D00860FFF7F5FF10BD000014040140AA
:100D00002DE9F84FDFF884B100234FF0010C4FF0CC
:100D1000030A4FF00F090BF1040EB0E00CFA03F6D2
:100D200014EA060272D04C68022C01D0122C0ED1AB
:100D3000DC0800EB8408D8F820405D07EF0E09FAC4
:100D400007F5AC430D69BD402543C8F8205007683E
:100D50005D0091F804800AFA05F408F00308A7433F
:100D600008FA05F848EA0708C0F800804F68012F24
:100D700005D0022F03D0112F01D0122F11D1876877
:100D8000D1F80C80A74308FA05F848EA0708C0F82C
:100D900008804768B7430E79C6F300169E403E436D
:100DA0004660C668A6438C68AC403443C4604C6857
:100DB000E40063D5364C256845F0010525602468BC
:100DC00023F0030504F001040094324C2E19B4689A
:100DD0009D072F0F09FA07F5AC432F4DA84201D10B
:100DE000002524E02D4DA84201D101251FE02C4D06
:100DF000A84201D102251AE02A4DA84201D10325BB
:100E000015E0294DA84202D1042510E036E0274D17
:100E1000A84201D105250AE0254DA84201D10625A9
:100E200005E0244DA84201D1072500E00825BD407A
:100E30002543B560DBF800405D464E689443F603F9
:100E400000D514432C60DEF8004075464E6894438C
:100E5000B60300D514432C600C4D08352C684E6841
:100E60009443F60200D514432C60084D0C352C68D1
:100E70004E689443B60200D514432C605B1C0A688C
:100E80001446DA407FF44AAFBDE8F88F0004014011
:100E900020380240000001400000024000040240EF
:100EA00000080240000C02400010024000180240FE
:100EB000001C0240001402400069084000D00120DC
:100EC00070470AB1816170470904FBE70148006877
:100ED000704700002400002070B504000DD094F885
:100EE0003500002520B984F83450204600F094F8ED
:100EF00000F0B2FB4549884201D2012070BD0221B9
:100F000084F8351021680A6822F001020A6040491D
:100F10002268B0FBF1F1536823F03F030B435360A9
:100F20003C4A6368934206D94FF4967359434FF491
:100F30007A73B1FBF3F12368491C1E6A26F03F0661
:100F400031431962616891420BD84900B0FBF1F25C
:100F5000C2F30B02042A01D2042019E0B0FBF1F025
:100F600016E0A368F3B301EBC10202EB0112B0FB80
:100F7000F2F242F48042120540D0A3B301EBC10269
:100F800002EB0111B0FBF1F040F4804040F400406E
:100F90002168CA694CF6FF739A431043C861D4E9CB
:100FA0000701084321680A6822F0C0021043086064
:100FB000D4E90310084321688A6848F2FF339A4352
:100FC00010438860D4E9050108432168CA6822F00B
:100FD000FF021043C8602068016841F00101016010
:100FE000A56301E005E00BE0012084F83500002056
:100FF00070BD01EB4102B0FBF2F2BCE70120C7E794
:1010000001EB4101B0FBF1F0C0E7000080841E005D
:1010100040420F00A08601007047000002480168AE
:10102000491C01607047000024000020094810B5E9
:10103000016841F004010160016841F002010160B2
:10104000032000F04FF80F2000F006F800F006F83B
:10105000002010BD003C02400020704710B500F099
:1010600073F800F05DF8BDE8104000F04DB800F0F6
:101070001F02012191404009800000F1E020C0F8EA
:10108000001170474109890001F1E021D1F80012F7
:1010900000F01F0201209040014201D00120704762
:1010A00000207047F0B40E4B1B680C46C3F30223BC
:1010B000C3F10705042D00D90425191D072901D204
:1010C000002300E0DB1E012606FA05F1491E21403F
:1010D00099409E40761E16403143F0BC02F0FDB9A7
:1010E0000CED00E0064900F0070208684FF6FF0328
:1010F000184040EA0220034A10430860704700008D
:101100000CED00E00000FA050120810291FAA1F146
:10111000024AB1FA81F142F82100704700000E4204
:101120000120410291FAA1F1024AB1FA81F142F89B
:101130002100704700000E420248006800F4C050D1
:1011400070470000007000400020102191FAA1F1CA
:10115000024AB1FA81F142F82100704700000E42C4
:10116000094A136823F00303034313600748026826
:1011700022F004020260012903D040BF20BF20BF3B
:10118000704730BF704700000070004010ED00E075
:101190000B4A136823F003030343136009480268F2
:1011A00042F004020260012907D040BF20BF20BFE7
:1011B000016821F004010160704730BFF8E70000CA
:1011C0000070004010ED00E02DE9F84F0446006883
:1011D000C10701D180076FD54848016841F08051AF
:1011E00001600068464D00F080500090286840F48F
:1011F00080702860FFF76AFE064604E0FFF766FE8F
:10120000801B642849D82868C005F7D53B4D1035A8
:101210002868616800F4403001F4403101268142C1
:1012200002D02178C90707D1A16801F44031814279
:101230001AD02078800717D528684FF4000191FA5A
:10124000A1F2B2FA82F293002E4A20F44030134405
:10125000C3F8806691FAA1F1B1FA81F102EB810144
:101260000023C1F880362860DFF8908061684FF471
:101270008030A8F12408814202D0A168814227D1A0
:10128000FFF724FE074641F2883A4FF4007907E061
:10129000FFF71CFEC11B514502D90320BDE8F88FA2
:1012A00099FAA9F0B0FA80F040F04000B6EB501F78
:1012B00003D1D8F8000001E01EE0286899FAA9F1EE
:1012C000B1FA81F101F01F0206FA02F10842DFD003
:1012D0006168C1F30140032808D1D8F8002001F06B
:1012E000C04122F0C0420A43C8F800202868616863
:1012F00001F44031084328600020CFE72438024041
:1013000000700040000047422DE9F05FDFF80CA3B9
:1013100004460E46DAF80000C14900F00107012238
:10132000DFF8FC92BE48343153044FF0007B4FF09D
:10133000020E41F2883509F10809B74270D2012E38
:1013400005D1DAF800C04CF0040CCAF800C0DAF895
:1013500000C02CF0010C4CEA060CCAF800C0DAF808
:10136000007007F00107B74275D12678B60709D596
:10137000D9F80070D4F808C027F0F00747EA0C0746
:10138000C9F800702678F60758D06768022F05D094
:10139000032F10D0012F1CD04FF4007393FAA3F643
:1013A000B6FA86F646F0200676093AD0D0F8000064
:1013B00093FAA3F11AE09BFAABF6B6FA86F646F07A
:1013C0002006760901D0006800E008689BFAABF1BE
:1013D0000CE09EFAAEF6B6FA86F646F020067609DE
:1013E00001D0006800E008689EFAAEF1B1FA81F120
:1013F00001F01F018A4010422DD0D9F800004E465E
:1014000020F003003843C9F80000FFF75FFD0746EE
:10141000606802280DD0032817D0012821D02CE0C5
:1014200030E00868C4E700BFFFF750FDC01BA842CA
:101430007ED83068C0F381000228F5D1D1E000BF2A
:10144000FFF744FDC01BA84272D83068C0F381008A
:101450000328F5D1C5E0C2E0FFF738FDC01BA84264
:1014600066D83068C0F381000128F5D1B9E000BF2B
:10147000FFF72CFDC01BA8425AD8306810F00C0FA3
:10148000F6D1AEE02778BF0709D5D9F800C0D4F867
:1014900008802CF0F00C4CEA080CC9F800C0277842
:1014A000FF0760D06768022F05D0032F11D0012FEE
:1014B0001ED04FF4007393FAA3FCBCFA8CFC4CF0E2
:1014C000200C5FEA5C1C3ED0D0F8000093FAA3F138
:1014D0001CE09BFAABFCBCFA8CFC4CF0200C5FEAE5
:1014E0005C1C01D0006800E008689BFAABF10DE0DD
:1014F0009EFAAEFCBCFA8CFC4CF0200C5FEA5C1C43
:1015000001D0006800E008689EFAAEF1B1FA81F1FE
:1015100001F01F018A40104261D0D9F8001021F07B
:1015200003013943C9F80010FFF7D0FC074600E07B
:1015300039E0606802280FD003281BD0A846012894
:101540004D4624D032E00868C0E700BFFFF7BEFC7C
:10155000C11B414502D926E0A8464D462868C0F384
:1015600081000228F2D125E0FFF7B0FCC11B414504
:1015700002D918E0A8464D462868C0F38100032828
:10158000F2D117E0FFF7A2FCC11B41450BD8286838
:10159000C0F381000128F5D10CE000BFFFF796FCF5
:1015A000C11B414502D90320BDE8F09F286810F017
:1015B0000C0FF3D1012E05D1DAF8001041F004012F
:1015C000CAF80010DAF8001021F001013143CAF81E
:1015D0000010DAF8000000F00100B04201D0012054
:1015E000E2E72078400707D5D9F80010E26821F437
:1015F000E0611143C9F800102078000708D5D9F838
:101600000010226921F4605141EAC201C9F80010BA
:101610000F20FFF721FD0020C6E70000003C02403C
:101620000038024000B500F043F808490968F0228C
:1016300092FAA2F201F0F001B2FA82F2D140044A29
:10164000515CC8400349086000BD000008380240F2
:101650003C6400082000002000B5FFF7E3FF0749C5
:1016600009684FF4E06292FAA2F201F4E061B2FA82
:1016700082F2D140024A515CC84000BD08380240A5
:101680003C64000800B5FFF7CDFF074909684FF437
:10169000605292FAA2F201F46051B2FA82F2D140A1
:1016A000024A515CC84000BD083802403C64000852
:1016B0001F4A106800F00C01042913D0082913D028
:1016C0000C2913D0101F006800F460414FF46040F3
:1016D00090FAA0F0B0FA80F0C1404FF40040491CED
:1016E0008840704713487047134870474FF4701391
:1016F00093FAA3F300F47011B3FA83F3D9400F4BBC
:1017000000F440001268595C4FF4400393FAA3F3CD
:10171000B3FA83F3D840094B143B185CD203B1FBF6
:10172000F0F001D5044900E0024948437047000049
:10173000083802400024F40000127A004C640008CB
:101740002DE9F84F04460078DFF8DCB3F74FF84E88
:10175000C0074FF0010528D0DBF800105846C1F350
:1017600081014FF40038022907D00168C1F38101DB
:1017700003291BD10068C00318D598FAA8F0B0FA65
:1017800080F040F02000400901D0386800E0306867
:1017900098FAA8F1B1FA81F101F01F0105FA01F1FF
:1017A000084202D0606800287AD085E0386820F4CA
:1017B00080303860386820F480203860FFF786FB7E
:1017C000824641F2883905E0FFF780FBA0EB0A0171
:1017D00049457CD898FAA8F0B0FA80F040F0200093
:1017E000400901D0386800E0306898FAA8F1B1FAF1
:1017F00081F101F01F0105FA01F10842E4D13868D6
:1018000020F480303860606801280BD0052811D0A2
:10181000386820F480203860606868B3FFF756FBB2
:10182000824613E0386820F480203860386840F43D
:101830008030F0E7BD490520891C0870ECE700BF47
:10184000FFF744FBA0EB0A014945C2D898FAA8F07B
:10185000B0FA80F040F02000400901D0386800E084
:10186000306898FAA8F1B1FA81F101F01F0105FA88
:1018700001F10842E4D01FE0FFF728FB824605E0B3
:10188000FFF724FBA0EB0A014945A2D898FAA8F07B
:10189000B0FA80F040F02000400902D0386801E042
:1018A000B1E0306898FAA8F1B1FA81F101F01F01B6
:1018B00005FA01F10842E3D12078DFF87882800749
:1018C0004FF0000A4FF0020960D5584600E07BE176
:1018D000DBF80010C1F38101012907D00168C1F3D1
:1018E000810103291BD10068C00318D499FAA9F01B
:1018F000B0FA80F040F02000400901D0386800E0E4
:10190000306899FAA9F1B1FA81F101F01F0105FAE5
:1019100001F108422BD0E068012874D127E0E0688B
:10192000A8B395FAA5F0B0FA80F048F82050FFF778
:10193000CDFA009006E000BFFFF7C8FA0099401A00
:101940006428A2D899FAA9F0B0FA80F040F02000FB
:10195000400901D0386800E0306899FAA9F1B1FA7D
:1019600081F101F01F0105FA01F10842E4D06E484F
:10197000001F01684FF4F85393FAA3F32269B3FAF6
:1019800083F321F4F8519A401143016025E0FFE709
:1019900095FAA5F1B1FA81F148F821A0FFF796FA7E
:1019A000009005E0FFF792FA0099401A6428C8D821
:1019B00099FAA9F0B0FA80F040F02000400901D077
:1019C000386800E0306899FAA9F1B1FA81F101F0C4
:1019D0001F0105FA01F10842E4D12078C0066ED556
:1019E000DBF8000010F00C0F0ED0A1694FF48070EE
:1019F000E9B390FAA0F0B0FA80F048F82050FFF771
:101A000065FA009062E08EE04FF4007191FAA1F067
:101A1000B0FA80F040F02000400901D0386800E0C2
:101A2000306891FAA1F1B1FA81F101F01F0105FAD4
:101A300001F1084202D0A069002874D03A48216A16
:101A4000001F006800F4604081421CD9084601F084
:101A5000E7FD002867D13448001F0168226A21F49D
:101A6000604111430160016821F07F4100E063E0C3
:101A70004FF07F4393FAA3F3E269B3FA83F39A40FA
:101A80001143016018E02848001F026822F46042F8
:101A90000A43026001684FF07F4393FAA3F3E269BF
:101AA000B3FA83F321F07F419A4011430160206A29
:101AB00001F0B6FD0028CDD10F20FFF7CDFA62E08E
:101AC000FFF704FA0099401A64287DD84FF400719A
:101AD00091FAA1F0B0FA80F040F02000400901D066
:101AE000386800E0306891FAA1F1B1FA81F101F0B3
:101AF0001F0105FA01F10842E2D00B48001F0168FE
:101B0000226A21F460411143016001684FF07F4374
:101B100093FAA3F3E269B3FA83F321F07F419A4089
:101B2000114301602FE0B3E1083802400038024061
:101B3000343802400000474290FAA0F0B0FA80F03A
:101B400048F820A0FFF7C2F9009005E0FFF7BEF9C2
:101B50000099401A6428B8D84FF4007191FAA1F0A6
:101B6000B0FA80F040F02000400901D0386800E071
:101B7000306891FAA1F1B1FA81F101F01F0105FA83
:101B800001F10842E2D12078000755D5606950B3D1
:101B900095FAA5F0B0FA80F008EB8000C0F8805606
:101BA000FFF794F9009005E0FFF790F90099401ACB
:101BB00064288AD899FAA9F0B0FA80F040F0400081
:101BC000B5EB501F03D100E090E0386800E03068CA
:101BD00099FAA9F1B1FA81F101F01F0105FA01F2B8
:101BE0001042E1D028E095FAA5F1B1FA81F108EBB5
:101BF0008101C1F880A6FFF769F9009006E000BFF7
:101C0000FFF764F90099401A64286FD899FAA9F08F
:101C1000B0FA80F040F04000B5EB501F01D13868B9
:101C200000E0306899FAA9F1B1FA81F101F01F01E1
:101C300005FA01F21042E3D12078400779D5A64891
:101C4000016841F080510160006800F08050009010
:101C5000A248016841F480710160FFF737F98146BD
:101C600006E000BFFFF732F9A0EB090064283DD879
:101C70009A480068C005F5D5306820F4807030605F
:101C8000306820F480603060FFF720F94FF400796D
:101C9000009007E0FFF71AF90099411A41F28830E5
:101CA000814223D899FAA9F0B0FA80F040F04000C0
:101CB000B5EB501F01D1386800E0306899FAA9F1FE
:101CC000B1FA81F101F01F0105FA01F10842E1D1F9
:101CD000A06801280BD008B1052812D0306820F484
:101CE00080703060306820F4806003E08BE0306802
:101CF00040F480703060A06840B3FFF7E7F80090D0
:101D00000CE0306840F480603060F0E7FFF7DEF808
:101D10000099411A41F28830814274D899FAA9F0A9
:101D2000B0FA80F040F04000B5EB501F02D13868A7
:101D300001E02DE0306899FAA9F1B1FA81F101F0E2
:101D40001F0105FA01F21042E0D021E0FFF7BEF8D2
:101D5000009007E0FFF7BAF80099411A41F2883085
:101D6000814250D899FAA9F0B0FA80F040F04000D2
:101D7000B5EB501F01D1386800E0306899FAA9F13D
:101D8000B1FA81F101F01F0105FA01F21042E1D12F
:101D9000606AB8B3DBF80010C1F38101032977D082
:101DA00002284FF080714FF0007950460BD091FA25
:101DB000A1F1B1FA81F148F82100FFF787F8B846A0
:101DC00004464F466EE04FF0807191FAA1F1B1FAEE
:101DD00081F18A0042495050FFF778F8B2468046B8
:101DE0004E4605E0FFF772F8A0EB0800642856D8CD
:101DF00096FAA6F0B0FA80F040F02000400903D037
:101E0000386803E064E04AE0DAF8000096FAA6F1E8
:101E1000B1FA81F101F01F0105FA01F10842E1D1A7
:101E2000D4E90A10226BDBF80030014323F47D0370
:101E30001A431143CBF800104FF0807090FAA0F0D5
:101E4000B0FA80F0810026480D50FFF73FF8B84601
:101E50000446574605E000BFFFF738F8001B64282A
:101E60001DD896FAA6F0B0FA80F040F020004009A4
:101E700002D0D8F8000000E0386896FAA6F1B1FA6E
:101E800081F101F01F0105FA01F10842E4D01FE0E1
:101E900020E000BFFFF71AF8001B642802D90320D6
:101EA000BDE8F88F97FAA7F0B0FA80F040F0200074
:101EB000400902D0D8F8000000E0306897FAA7F196
:101EC000B1FA81F101F01F0105FA01F10842E1D1F7
:101ED0000020E5E70120E3E72438024000700040DD
:101EE000000047427047017F012916D00121017788
:101EF000022242770368CA225A62036853225A6256
:101F00000268936843F0200393600368FF225A62DB
:101F1000417700210177084670470220704702F0A0
:101F200071BF000010B504460068C168C9050CD532
:101F30008068C00409D52046FFF7F1FF2068C1681A
:101F400001F0800161F4C071C1602068C168890539
:101F50000CD58068800409D52046FFF7C3FF2068B0
:101F6000C16801F0800161F42071C16003494FF440
:101F7000003008600120607710BD000014040140AB
:101F80002DE9F0470446007F012822D04FF00108D8
:101F900084F81C80022060772268CA205062226880
:101FA0005320506220680025FF26B1F5807F8168AC
:101FB0004FF0030A4FF47A790ED021F4007181605A
:101FC0002068816821F400518160FEF77FFF074699
:101FD00024E00220BDE8F08721F480718160206850
:101FE000816821F480518160FEF770FF074604E0AC
:101FF000FEF76CFFC01B484509D82068C068C007C1
:10200000F6D00FE0FEF762FFC01B484506D92068F6
:10201000466284F81DA025770320DBE72068C068AE
:102020008007EFD52068466284F81D802577002060
:10203000D0E770B50C464FF480718A4204D16162DA
:102040000068C169406C05E04FF40071616200688E
:10205000016A806CC1F30625C0F30E02C1F305408E
:102060002070657001F07F05A570402505EA1145D7
:1020700025726260C1F3056284F8202001F080427D
:1020800001F08031E261616183B901F007FB2070EA
:10209000607801F003FB6070A07801F0FFFAA07097
:1020A00094F8200001F0FAFA84F82000002070BDB6
:1020B00010B500680B4641680D480140080CD87007
:1020C000C1F304245C7001F03F049C70C1F3423101
:1020D000197052B901F0E2FAD870587801F0DEFABE
:1020E0005870987801F0DAFA9870002010BD00005E
:1020F0003FFFFF0010B50C460168896A89B2616034
:10210000006801680E480140C1F305402070C1F32A
:102110000623637001F07F03A370402303EA11419B
:10212000217252B901F0BAFA2070607801F0B6FA63
:102130006070A07801F0B2FAA070002010BD00001D
:102140007F7F7F0070B5040002D0607F10B106E091
:10215000012070BD00202077204600F041F80220C9
:1021600060772168CA20486221685320486220466F
:1021700001F0A8FAFF210028206803D04162042062
:102180006077E5E78268154B1A40826022689068A4
:1021900063681843D4E904352B43184390602268E0
:1021A000E068106120680269238942EA0342026103
:1021B0002068C26822F08002C2602068026C22F4AB
:1021C000802202642068026CA3691A4302642068BA
:1021D000416201206077002070BD0000BFFF8FFFCB
:1021E00010B590B0042000900020012409900294C2
:1021F0006846FFF7A5FA08B1FEF7D4FB4FF480302C
:10220000CDE90D400DA8FEF7DFFF08B1FEF7CAFBD0
:102210004FF4800090FAA0F00849B0FA80F001EB8A
:102220008000C0F88046002211462920FEF73AFFC0
:102230002920FEF71CFF10B010BD0000000047422F
:102240002DE9F05F0446007F0D46012848D00120AB
:102250002077022060772068002780684FEA40607E
:10226000EAB3002859DA287801F018FA95F8200026
:1022700001F014FAA87829782A7A40EA01406978AE
:10228000090241EA0241084395F8201040EA01663C
:10229000E869A969064368690643686840EA010875
:1022A0002168CA204862216853204862686AFF2575
:1022B000B0F5807F20684FF0030B4FF47A7A816885
:1022C0002DD021F4007181602068C16801F0800187
:1022D00061F42071C160FEF7F9FD814655E002E02E
:1022E0000220BDE8F09F002800DB2F72287801F063
:1022F000DEF90604687801F0DAF946EA0026A878E3
:1023000001F0D5F90643287A46EA004695F8200000
:1023100001F0CDF946EA0066BAE72F72A6E721F48C
:10232000807181602068C16801F0800161F4C07132
:10233000C160FEF7CBFD814606E000BFFEF7C6FD9B
:10234000A0EB0900504519D82068C068C007F5D037
:102350002068C6612168C1F844802068816841F422
:10236000807181602068816841F480511FE000BF66
:10237000FEF7ACFDA0EB0900504506D92068456288
:1023800084F81DB027770320ABE72068C06880077A
:10239000EED5206806622168C1F84880206881680F
:1023A00041F4007181602068816841F400518160CE
:1023B0000848016841F400310160064808300168AE
:1023C00041F4003101602068456201206077277781
:1023D000002086E7000401402DE9F0470446007F15
:1023E0000B46012825D04FF0010984F81C900220EB
:1023F0006077587802B301F051F9987801F04EF9FE
:102400009878D97840EA014558781978000240EA6E
:10241000413005432168CA20486221685320486240
:10242000204601F04FF90026FF274FF0040838BB83
:1024300019E00220BDE8F087C10603D500F0EF00E7
:102440000A305870D87801F032F90204587801F057
:102450002EF942EA0022987801F029F9024318780F
:1024600042EA4035D6E70D480540206845602068BF
:10247000C16821F08001C160204600F085F830B1CC
:102480002068476284F81D8026770120D2E7206803
:10249000476284F81D9026770020CBE73FFFFF00BE
:1024A0002DE9F0470446007F0D46012811D04FF07A
:1024B000010A84F81CA0022060772068002680684A
:1024C0004FEA406042B100281ADA287801F0E6F8B5
:1024D00017E00220BDE8F087002800DB2E72287884
:1024E00001F0E5F80204687801F0E1F842EA002220
:1024F000A87801F0DCF80243287A42EA00470AE0B3
:102500002E72A878297840EA01476878297A000273
:1025100040EA014007432168CA20486221685320ED
:102520004862204601F0CEF84FF0FF084FF0040952
:10253000C0B914480740206807602068816821F40A
:1025400080218160D5E90301084321688A6810432E
:1025500088602068C16821F08001C160204600F0D9
:1025600013F838B12168C1F8248084F81D902677CB
:102570000120AFE72168C1F8248084F81DA02677E8
:102580000020A7E77F7F7F0070B504460068816860
:10259000890614D4C16821F0A001C160FEF796FC41
:1025A00005464FF47A7606E0FEF790FC401BB042F9
:1025B00001D9032070BD2068C0688006F4D50020D2
:1025C00070BD10B504000ED02068016821F04001F4
:1025D0000160204600F04BF80020606584F851004F
:1025E00084F8500010BD012010BD70B5040004D067
:1025F00094F85100002510B106E0012070BD84F868
:102600005050204600F034F8022084F85100206831
:10261000016821F040010160D4E901010843D4E9D7
:1026200003121143084361690843218B01F40071CF
:102630000843E1690843216A0843A16A0843216805
:102640000860A069042101EA1040616A084321681A
:1026500048602168E06A08612068C16921F400616E
:10266000C1616565012084F85100002070BD70478C
:1026700070472DE9F8430025DDF820800446ADF8C9
:10268000005090F85100012803D094F851002228FE
:102690007DD169B162B15BB194F85000012876D068
:1026A000012684F8506094F85100012803D005E019
:1026B0000120BDE8F883322084F851006565A263EB
:1026C000A387E3872163A386E386A564E564A06A04
:1026D0004FF40057B84209D12068016821F4005135
:1026E00001602068016841F40051016020680168C0
:1026F000490603D4016841F040010160E0684FF4ED
:102700008271B0F5006F606807D0002867D08842FA
:102710006ED1E08E012862D06AE020B188420CD1EF
:10272000E08E012809D1206B21680088C860206BE9
:10273000801C2063E08E401EE086E08E80B9A06A97
:10274000B84244D12068016841F4805101603EE004
:102750002068C068A16B0880A06B801CA0639EE00D
:10276000434600220221204601F012F8002874D1CD
:10277000206B21680088C860206B801C2063E08E7D
:10278000401E0004000CE08609D1A06A00E0C7E00A
:10279000B84204D12068016841F480510160434689
:1027A00000220121204600F0F3FF00286FD12068AD
:1027B000C068A16B0880A06B801CA063E08F401EE6
:1027C000E087E08E0028CBD1606800286AD14346BC
:1027D00000220121204600F0DBFFF0BBB8E7206BB0
:1027E000411C216321680078C860E08E401EE086AD
:1027F000E08E98B9A06AB84204D12068016841F41B
:1028000080510160434600220121204600F0C0FFB4
:1028100018BB2068C068A16B087040E043460022E6
:102820000221204600F0B4FFB8B9206B411C21639F
:1028300021680078C860E08E401E0004000CE0862D
:1028400007D1A06AB84204D12068016841F48051E0
:10285000016000224346012100E018E0204600F01C
:1028600097FFA0B92068C168A06B421CA2630170E9
:10287000E08F401EE087E08E0028CFD1606888B9E5
:10288000434600220121204600F082FF08B10320C8
:102890000FE72068C168A06B421CA2630170E08F43
:1028A000401EE087A06AB84210D1434600220121B1
:1028B000204600F06DFF18B1606D40F002000FE09F
:1028C0002068C068ADF80000BDF800004346012252
:1028D0008021204600F05CFF20B1606D40F02000B8
:1028E0006065D4E784F85160A06AB84214D12068CA
:1028F0008168C943C9060FD4616D41F00201616569
:10290000016821F4005101602068016841F4005120
:10291000016084F85050CBE684F850500020C8E69F
:102920000220C6E670B5040018D0022084F83900F1
:102930002068C16821F40051C16020680025C5608D
:102940002068056120684561204600F039F8E5639C
:1029500084F8395084F83850002070BD012070BDD3
:1029600070B5040004D094F83900002510B106E0D9
:10297000012070BD84F83850204600F04FF8022046
:1029800084F839002068C16821F40051C1602046F4
:1029900002F00CFB2068016921F49041016120687C
:1029A000416921F02A0141612068C16841F4005168
:1029B000C160E563012084F83900002070BD00008B
:1029C00010B586B014216846FDF725FC1148016852
:1029D00041F001010160016801F001010591016808
:1029E00041F00101016000680B4C00F0010005900E
:1029F00003200190002002900420009069462046A8
:102A0000FEF77EF90820009069462046FEF778F927
:102A100006B010BD1C3802400000024030B51A4814
:102A200087B0016841F001010160016801F0010116
:102A30000591016841F001010160006800F00100AA
:102A4000059011480830016841F4003101600068C8
:102A5000072400F40030059004200090022001902B
:102A6000012002900320CDE90304084D6946284661
:102A7000FEF746F908200090694604942846FEF7C0
:102A80003FF907B030BD00001C3802400000024092
:102A90002DE9F047044690F8390099460D46012883
:102AA00001D0222858D12DB322B394F83800012840
:102AB00052D0012684F838600027E76394F8390083
:102AC00022281AD05FF0120084F83900A284E28430
:102AD0004FF48058E08C4B46401EE084A0684FF0D5
:102AE000000240454FF08001204613D102F012FB56
:102AF00008BB04E00120BDE8F0873220E4E7288825
:102B00002168C0F308004860206908B16D1C08E026
:102B1000AD1C06E002F0FEFA68B9216815F8010B59
:102B20004860E08C0028D5D14B4600224021204649
:102B300002F0F0FA08B10320DDE794F839003228FA
:102B400006D084F8396000BF84F838700020D2E7DE
:102B5000222084F83900F7E70220CCE710B51748A7
:102B600086B00178002926D1012101701548144949
:102B7000002401604FF40031C0E901140461446293
:102B80001021446381614FF44031C1610E480168F6
:102B900041F400710160006800F40070059009487C
:102BA000FDF7D0FF0320CDE9010403906A46102110
:102BB000064800F0ABF806B010BD00003A00002057
:102BC00000240140E80300202038024000000240B9
:102BD00010B500F041FB04484068804703F052FB09
:102BE00002490020487010BDF86200083A00002039
:102BF00001210020FEF7B4BA10B5EFF3108472B6CD
:102C0000FFF7E6FF0648016841F00401016084F324
:102C100010880121BDE810400846FEF7B9BA00004F
:102C2000007000402DE9F041EFF3108472B60120EE
:102C300090FAA0F1274EB1FA81F146F82100264A18
:102C40000223254912F1340293FAA3F5B5FA85F56A
:102C500045F020056D0901D00D6800E0156893FA74
:102C6000A3F7B7FA87F707F01F0700FA07F73D4207
:102C7000EAD04FF0807393FAA3F3B3FA83F346F8E4
:102C800023004FF0007500BF95FAA5F3B3FA83F364
:102C900043F020035B0901D00B6800E0136895FA4C
:102CA000A5F6B6FA86F606F01F0600FA06F63342D7
:102CB000EAD009480830016841F003010160016869
:102CC000C1F381010329FAD100F08CF884F3108854
:102CD000BDE8F08100004742003802400146002074
:102CE0000A0A00D008204FF2F002114201D040F051
:102CF00004004CF6CC42114201D040F002004AF6EA
:102D0000AA22114201D040F00100704718B41C4BB8
:102D1000C4181C4B10D0B4F5806F15D0B4F5006FFB
:102D20001FD0B4F5406F1C6823D044F020041C6011
:102D30001B6803F020030EE01C6844F001041C60D3
:102D40001B6803F0010306E01C6844F002041C60E9
:102D50001B6803F002030093116018BC1146FDF7D5
:102D6000CFBF1C6844F004041C601B6803F004031C
:102D7000F1E744F008041C601B6803F00803EAE76D
:102D80000000FEBF1C38024010B5FFF7A7FF044942
:102D900051F82000002802D0BDE81040004710BDC7
:102DA000EC01002070B51C4615460E460846FFF79C
:102DB00095FF002C0FD0084941F82040304600F024
:102DC0005FFB044600222946FEF76CF92046BDE869
:102DD0007040FEF74CB970BDEC010020D2B2FEF796
:102DE00070B8000010B5094C607800280CD1FFF7CE
:102DF000B5FE07480068804700F08CFA00F0A4F8A0
:102E000003F046FA0120607010BD00003A00002077
:102E1000F862000870B5410EC0017D220023FDF765
:102E20009DF9054600F088F8044600E000BF00F078
:102E300083F8001BA842F9D370BD00002DE9F041D2
:102E4000074600240D4622462C48FFF753F96E68CA
:102E500000E00646002229462848FFF74BF968683B
:102E60008642F6D1002239462448FFF721F9002096
:102E7000234A244BF97803E086070BD01C44401CFE
:102E80008142F9D888074FF0000005D079781E4AB2
:102E9000491E17E01444F2E71B4A79780C32491EA8
:102EA00006E0135C40F2A326734304EBC314401CFA
:102EB0008142F6D808E0135C40F2A326734304EB8A
:102EC000C314401C8142F6D86978A878C1EB01117F
:102ED00000EB810228784FF461614843B97840F2F1
:102EE000A323594300EBC110104469682044C1EB8F
:102EF000802000F2FF30BDE8F08100002C020020AD
:102F00000085E2018033E101556400080320704729
:102F100001480068704700007402002000B587B0C7
:102F2000694605A8FFF78AFF0249096807B0401AF9
:102F300000BD00007402002000B587B0694605A8F6
:102F4000FFF77CFF07B000BD10B5084C20780028C3
:102F50000AD100F037F84FF480710548FFF710F8F8
:102F600000F06AF80120207010BD00002800002049
:102F70002C0200200148FEF7D5BF00002C020020E3
:102F800070B50446FFF7CAFF0D4D211AB5F90200CE
:102F9000C01C81424FF0010002D900F037FA01E075
:102FA00000F028FA00F03EFA28B9012000F02EFACD
:102FB000B5F90200241A2046BDE8704000F048B878
:102FC0002800002010B51B4886B019490024C0E92C
:102FD00000141F21816040F2FF31C0E903144461F5
:102FE0008461FFF7AFF810208DF8170001208DF8ED
:102FF00015008DF816008DF81400002205A90D4863
:10300000FFF7EAF98DF800408DF801408DF8024095
:103010008DF8084001940494002269460548039401
:10302000FFF73EFA0348FEF75EFF06B010BD000052
:10303000002800402C02002010B5044C211D04F192
:103040001800FFF7FBFE206010BD00007402002096
:10305000F0B587B005461422484901A8FDF7C2F82B
:1030600046484C38006E009000F090F844484FF409
:10307000005404600298C5F30901A0F2FF304042F9
:103080000844404A86B2AB0A9DF80200514202E071
:10309000401C134480B28B42FAD29DF804204FF4B6
:1030A000616103E0521C92B2A3F561638B42F9D2D5
:1030B0009DF8051002E0491C89B23C3B3C2BFAD23A
:1030C0009DF806502B449DB24FF4806305E000BF8D
:1030D000A6F580666D1CB6B2ADB29E42F8D203E092
:1030E0003C3D491CADB289B23C2DF9D203E03C39DC
:1030F000521C89B292B23C29F9D203E0183A401C22
:1031000092B280B2182AF9D29DF803309DF801706E
:103110009B0730D01C4B5B1EFB5C834203D2B0FB91
:10312000F3F703FB1700154BA6F2FF362C3B764254
:103130005E604FF020669E619D7059701A7083F832
:1031400020009DF80C0018720020D86158614FF4DF
:103150008071D8605962024618611946A1F12000B9
:10316000FFF76EF801A96846FFF768FE04481030C3
:10317000046007B0F0BD044B0C33CCE778020020AC
:103180001804024080AEFEFF55640008064800683F
:10319000C16801F0800161F4C071C1604FF48071B9
:1031A0000148FEF7EDBE00002C02002010B5410ED4
:1031B000C0017D220023FCF7D1FF10BD30B5204CAB
:1031C00087B06078002838D12920FDF75BFF0128FF
:1031D00033D16070694605A8FFF730FE19490546EE
:1031E0004FF4005008601749103108601649421129
:1031F0000023A1F12000FEF71CFF134890F82020C7
:10320000017802EB420201EBC2014278C1EB0111ED
:1032100002EB81018278C1EB0111808802EB810110
:10322000C0EB812101F2FF31681A02B260881044BC
:1032300001B2618005A003F047F807B030BD00007F
:1032400028000020180402404C02002043616C3D1D
:1032500025642C2025640A0070B586B014216846C8
:10326000FCF7D9FF1F48FFF7ACF91F48016841F48C
:1032700080510160016821F4805101601B4E0124DE
:1032800000256A4680213046CDE90145FFF73EFD25
:10329000002280213046FFF7A1FD022002906A46FD
:1032A00040213046FFF732FD002240213046FFF733
:1032B00095FD6A46202130460295FFF727FD002242
:1032C00020213046FFF78AFD0294094C6A464021CE
:1032D0002046FFF71BFD012240212046FFF77EFD1F
:1032E00006B070BD90020020143802400000024079
:1032F0000004024001B582B04FF0FF30009001237E
:1033000001AA02A90248FFF7B4F9BDF804000EBDF6
:103310009002002010B586B014216846FCF77BFFB0
:103320002D482C492E4A01602C4B0021126803E0E5
:103330005208491C072901D29A42F9D8302202EAE0
:10334000C102C90700D008210A43C26100214FF41D
:103350008272C0E9012101614161C16081624FF463
:1033600000720162826141621E48016841F480512D
:103370000160006800F4805005901748FFF735F9A8
:1033800008B1FDF70FFB022001900290032003908B
:103390000520154C04906A4620212046FFF7B6FC14
:1033A0006A4640212046FFF7B1FC6A46802120464C
:1033B000FFF7ACFC01200D4C019002906A464021C1
:1033C0002046FFF7A3FC012240212046FFF706FD1F
:1033D00006B010BD00300140900200208096980099
:1033E000200000202038024000000240000402407B
:1033F00000BFFDE7EFF3108172B6034A1368034381
:1034000081F31088136070473C000020EFF31081B7
:1034100072B6034A1368834381F3108813607047C0
:103420003C00002001480068704700003C0000207C
:1034300070B50F484FF400440460651005600D48F6
:103440000B4E0068103E30B10BA002F03DFFFFF7BD
:10345000CFFB356070BD09A002F036FFFFF7CCFB53
:10346000FFF7E0FB3460BDE87040FFF7A7BE000047
:10347000280402403C0000207A0A0000647A0A0016
:10348000802826D010DC08281FD006DC012816D0A2
:10349000022816D0042810D115E0102817D02028B3
:1034A00017D0402809D114E0B0F5805F05DAB0F5F7
:1034B000807F0ED0B0F5007F0BD02820704706200B
:1034C00070470720704708207047092070470A207E
:1034D000704717207047FEE770470907090E00285C
:1034E00006DA00F00F0000F1E02080F8141D7047AC
:1034F00000F1E02080F8001470470000002802D09E
:1035000001490A20887070472C0000202DE9F04105
:10351000074617481E461546406B0C468047224614
:10352000144C39461448A280FCF75CFE2570667086
:103530000420A07011A002F0C7FE3246294612A056
:1035400002F0C2FE18A002F0BFFE00250A4E07E0FE
:10355000715D18A002F0B8FE17A002F0B5FE6D1C58
:10356000A0888542F4DBBDE8F04106A002F0ACBEC5
:10357000F86200082C000020E80200204F6E52780C
:10358000446F6E650A0000005273736956616C7572
:10359000653D25642064426D2C20536E7256616C2B
:1035A00075653D25640A00005278446174613A20D3
:1035B00000000000256400002C000000034810B546
:1035C000406B804702490620887010BDF8620008F1
:1035D0002C000020034810B5406B804702490520AD
:1035E000887010BDF86200082C000020034810B558
:1035F000406B804702490720887010BDF8620008C0
:103600002C000020034810B5406B80470249082079
:10361000887010BDF86200082C0000207047000080
:10362000F8B507461A48002600681A4D10F0F00F4A
:1036300020D1174C1C342068C00002D5FDF77CFD5A
:103640000DE0206840F080502060206800F080503D
:103650000090FDF771FD216821F080512160B0F5E7
:10366000C05F07D1B7F5404F04D12868012640F06C
:1036700004002860286820F0010030432860286892
:1036800000F00100B04201D00120F8BD0020F8BDDB
:1036900008380240003C0240FFF76CBC010901EB16
:1036A000810100F00F0000EB4100C0B27047002123
:1036B00002E00A38C0B2491C0A28FAD2090740EAD7
:1036C0001160704770B504460068C168490614D49B
:1036D0004FF0FF31C160FDF7F9FB05464FF47A76F4
:1036E00007E000BFFDF7F2FB401BB04201D9032009
:1036F00070BD2068C0684006F4D5002070BD000091
:1037000070B5092000F0E5FC0546062000F0E1FC5C
:103710000404072000F0DDFC44EA0024082000F047
:10372000D8FC0443220AA4EB022343F60950434386
:103730004243803302EB13240021092001F0B0FA48
:103740003B2000F0C6FC40F040013B2001F0A8FA0D
:103750003B2000F0BEFC8006FAD40C4800F0E0FDEF
:103760003B2000F0B6FC40F040013B2001F098FA0D
:103770003B2000F0AEFC8006FAD42946092001F077
:103780008FFA2046BDE8704000F0CABD00A1BC33EE
:103790002DE9F0471D4690460E460446FDF796FB80
:1037A00007465FEA08004FF000084FF4005A4FF058
:1037B000010926D034E0681C23D025B1FDF786FB33
:1037C000C01BA8421DD92068416821F0E00141607A
:1037D0002068016821F040010160A06A504509D1CC
:1037E0002068016821F4005101602068016841F4FB
:1037F0000051016084F8519084F850800320BDE8A6
:10380000F0872068806836EA0000D4D10DE0681C9B
:1038100006D0002DD7D0FDF759FBC01BA842D2D847
:103820002068806836EA0000F1D00020E7E77047A2
:103830000120704700207047014800797047000060
:10384000500100202DE9F34F02004FF000006F4EB1
:1038500081B0014602D0012A49D14EE0B246F0695A
:10386000FCF794FE064689460298FCF78FFE074651
:103870008846302000F02DFC30F0F9004FF00004B5
:1038800001D0634D00E00025272000F022FC20F04D
:10389000F801BAF82000491C0844FCF777FE9AF8B2
:1038A0002220012A4FF0000222D0594BFCF7BEFC27
:1038B00022462B46FCF7BAFC3A464346FCF7B6FCD8
:1038C0009AF82420012A4FF0000213D05FF0000381
:1038D000FCF7ACFC0322FCF731FE32464B46FCF70A
:1038E000BEFD00224B4BFCF748FD02F081FC87E057
:1038F0000023DBE74FF08043EAE70024306C2546E5
:10390000072804D0082805D0092808D105E000249C
:10391000414D04E00024414D01E0414D002456F8A2
:10392000447F0120B840FCF720FE02460B462046AB
:103930002946FCF794FD02460B4600203449FCF76B
:103940008EFD04460D46F088FCF720FE0022354B24
:10395000FCF76CFC22462B46FCF70FFD83460091DA
:103960007079001DFCF712FE814630798A4600B15D
:103970000220C0EB8700FCF709FE06460298884645
:10398000C000794200EB8101204890F84E0001EB25
:1039900000111E4890F84C0000B11420081A1C3089
:1039A000FCF7F4FD32464346FCF759FD02F06CF893
:1039B0004A465346FCF7E1FC002207460E461346F2
:1039C000FCF72AFE02D23846314601E000200146CB
:1039D0000022154BFCF72AFC22462B46FCF7CDFCB7
:1039E00002460B4658460099FCF720FC0022094B82
:1039F000FCF7C3FC0D4A0E4BFCF718FC02F0B2F8C2
:103A000003B0BDE8F04FFCF7EDBD00005001002011
:103A10000000F03F00408F408084FE4080840E41D3
:103A200080841E4100001140000020402B8716D9E1
:103A3000CEF7EF3F70B5194908601949194801F0F0
:103A4000CDF918481649143001F0C8F91548144941
:103A5000283001F0C3F900F08DFBFFF751FE002084
:103A600000F0CEFC0D48001D00F072F80E4D002451
:103A700004EB4406A85D00F091FC70198178407851
:103A800001F00EF9641CE4B2102CF1D3002000F018
:103A900085FC044900206039087170BD04000020D5
:103AA0000D400008B00100205863000810B586B032
:103AB00014216846FCF7AFFB0D48019000200290EE
:103AC0006A464FF480610B48FFF720F90A4C6A46BA
:103AD00008212046FFF71AF96A4620212046FFF701
:103AE00015F96A4610212046FFF710F906B010BDFF
:103AF00000001110000002400004024010B586B022
:103B000014216846FCF787FB0E48019001200290C3
:103B1000032003906A464FF480610B48FFF7F6F8E4
:103B20000A4C6A4608212046FFF7F0F86A46202131
:103B30002046FFF7EBF86A4610212046FFF7E6F82B
:103B400006B010BD00001110000002400004024049
:103B500070B50446036800224FF480610B48FFF7FC
:103B600021F90B4D0022082128466368FFF71AF956
:103B7000002220212846A368FFF714F92846E368AD
:103B8000BDE8704000221021FFF70CB90000024090
:103B90000004024070B514460E46054600F0FEFBD8
:103BA000304600F0BDFB052000F02AFC0120FCF7A8
:103BB000B8FE284600F0BEFA054600F08DFEA5428C
:103BC00001DD002070BD012070BD0000F8B50025AA
:103BD0008DF80050844C854E2079012809D00228A8
:103BE00053D104F1600001F0B5F9607901287DD16D
:103BF000E9E06079B8B1012847D14021122001F0F5
:103C00004FF8122000F065FA8DF800009DF80000D2
:103C100080066CD52021122001F042F894F8520061
:103C200000287CD07CE094F82400012834D13F2087
:103C300000F04FFA8DF800009DF8000080072BD4AB
:103C40000B213E2001F02CF810213F2001F028F834
:103C50006548743001F07EF994F82600B0B10D206B
:103C600000F037FA40F040010D2001F019F85E48ED
:103C7000883001F037F9306810B1006900B1804731
:103C800004F82C5F6570A5816581F8BD56488830C1
:103C900001F060F92571EEE7E18E554F51B9208FA3
:103CA00040B994F8220068B3322000F012FAE0869E
:103CB00094F83610208F091AC9B2384400F034FA4B
:103CC000E08E208794F8260018B30D2000F001FA4A
:103CD00040F040010D2000F0E3FF4348743001F054
:103CE00039F930680028CBD0866801E06FE025E024
:103CF000002EC5D094F92E20E18E00233C48B04719
:103D0000BEE70CE0FFE738480121363000F00CFA3E
:103D1000CEE735482571883001F0E4F8DDE72571FC
:103D20003148743001F016F930680028ADD00069D0
:103D30000028AAD001B0BDE8F0400047192000F0EB
:103D4000C8F940B284F85800010605D5C043401CAC
:103D5000C0F38500474201E0C0F385071A2000F058
:103D6000B8F92449A268002F06DA00EB20108A4235
:103D7000384405D99D3804E08A4200EB2010F9D878
:103D8000A438A4F85A00132000F0A3F984F85C00CA
:103D90000146174800F0C8F994F8520000B925719F
:103DA0001148743001F0D6F830680028BED085681C
:103DB000002DBBD014F9583F0D48B4F902202179E9
:103DC000A8470DA00CE00821122000F069FF257122
:103DD00030680028AAD000680028A7D0804708A033
:103DE000BDE8F84002F070BA500100200400002045
:103DF0005000002040DD4A1F7278446F6E650A0053
:103E00007478446F6E650A0070B5304C2046237993
:103E10004279C18E008FA4F58075012B13D0022B3F
:103E20004ED1002A4CD10A1A234694F83B101B8F1E
:103E3000284618448A4244DD00F05AFF208F94F847
:103E40003B1008443BE0C2B1012A39D11F4874300D
:103E500001F080F88021122000F022FF0020207164
:103E60001B48006800282BD0C068002828D0804755
:103E7000BDE8704017A002F027BA39B930B994F8FC
:103E8000220088B1322000F024F9E086E18E208FF4
:103E90000A1A94F83A108A420CDD284400F044F9DA
:103EA000208F94F83A10CCE708480121363000F012
:103EB0003BF9EBE7D1B2284400F036F904E0208763
:103EC00070BDD1B200F014FFE08EF8E75001002081
:103ED00004000020727854696D654F75740A000003
:103EE00070B52B4D2B4C28462A79417990F84F001C
:103EF000012A03D0022A00D109B970BDB9B1012944
:103F0000FBD10128F9D10221122000F0C9FE20685E
:103F10000028F2D040690028EFD01C2000F0D9F82A
:103F2000216800F03F004969BDE87040084795F8F6
:103F30002C000128E1D195F82D000028DDD114488E
:103F4000883001F007F8012005F82D0F112000F04E
:103F5000C0F84008404268701C2000F0BAF80446DF
:103F60001B2000F0B6F844EA0020010AA0EB012073
:103F700043F6095250435143803001EB1020C5F8FD
:103F800003000C2000F0A5F84009E87170BD0000A6
:103F90005001002004000020134810B5407900288B
:103FA00021D001281FD1122000F093F80F4CC00738
:103FB0000BD00521122000F073FE2068002812D0DB
:103FC000816900290FD001200AE00421122000F0AD
:103FD00067FE2068002806D08169002903D00020F0
:103FE000BDE81040084710BD50010020040000202B
:103FF00005484179002906D190F82C10002902D1FA
:10400000012180F82C1070475001002070B51F4D21
:1040100000241F4E287901280BD0022835D12C719D
:104020003068002831D0406800282ED0BDE87040AC
:1040300000476879B8B985F82C4085F82D402C8761
:10404000EC860B213E20263500F02AFE10213F2071
:1040500000F026FE15F82609012809D00B482C711E
:10406000883000F077FF306800280ED0C068DBE7AA
:104070000D2000F02EF840F040010D2000F010FE61
:104080000248883000F02EFFEDE770BD500100209F
:104090000400002070B50025012000F07FF9FF2109
:1040A000112000F0FDFD052000F0AAF900240120F8
:1040B000FCF737FC2C2000F00CF800F00100A040C9
:1040C000641C0543E4B2202CF1D300F005FC284623
:1040D00070BD08B50122694600F004F89DF80000A3
:1040E00008BD00002DE9F0410E4F15460E4604466E
:1040F000002240213846FEF771FE04F07F00FFF7F2
:10410000F9F8002405E00020FFF7F4F83055641CAE
:10411000E4B2AC42F7D33846BDE8F0410122402179
:10412000FEF75CBE000402400A4601460020FFF78D
:10413000D9BF000010B520B1012808D04FF0FF30E2
:1041400010BD1120FFF7C5FF4008404210BD0748D1
:104150000749806888424FF01B0003D9FFF7B9FF79
:104160009D3810BDFFF7B5FFA43810BD50010020E9
:1041700040DD4A1F30B585B014216846FCF74BF886
:1041800001200024CDE9010403200D4D03906A466F
:1041900001212846FEF7BAFD002201212846FEF73C
:1041A0001DFE0120FCF7BDFB6A4601212846019453
:1041B000FEF7ACFD0620FCF7B4FB05B030BD0000F7
:1041C0000000024073B5394C05460020617911B1F9
:1041D000012967D12AE0002020879DF80410E1869C
:1041E00094F8220050B1322000F05AFD9DF80420CE
:1041F000501E3F2807D884F83B200BE0012101A87E
:1042000000F076FDF2E72946294801F0D1FF202091
:1042100084F83B0094F83B102846283400F068FDF1
:10422000208AE17C0844208220683BE094F8510019
:1042300001284FF0330021D0FFF74BFF00F0BE0103
:104240003320491C00F02CFD1D213B2000F028FDEF
:104250009DF8041084F85C10222000F021FD00215C
:104260000E2000F01DFD00210D2000F019FD0120A1
:10427000FFF72FFF30F0F80009D00DE0FFF729FF1E
:1042800000F0BE01332000F00BFD1921DDE700F046
:1042900035FB0120FCF745FB9DF80410284600F093
:1042A00027FD606D00F040FB7CBD00005001002048
:1042B0005000002007490A78824209D0064B087056
:1042C00008B1012200E0002202211846FEF786BD57
:1042D000704700005001002000080240F0B50E4970
:1042E00085B00A78824215D0087000250126032780
:1042F0000A4C14216846FBF78EFF0397CDE9016550
:104300006A4602212046FEF701FD002202212046D6
:10431000FEF764FD05B0F0BD00000020000802407B
:10432000104910B543F609528860B0FBF2F15342D0
:1043300001FB0300531003EB0020B0FBF2F000EB95
:104340000124C4F30741062000F0AAFCC4F30721AE
:10435000072000F0A5FCE1B2BDE81040082000F005
:104360009FBC00005001002070B50D46044600F0CF
:1043700015F824B1012C0DD12946232006E006486A
:1043800090F82200002805D129463220BDE870406F
:1043900000F086BC70BD000050010020174910B528
:1043A0004A79824228D0487101284FF000000FD08E
:1043B00000F026F80120FFF78CFE00F07F010120BD
:1043C00000F06EFC0021402000F06AFC30210EE07D
:1043D00000F016F80120FFF77CFE40F0800101207C
:1043E00000F05EFC0021402000F05AFC0021BDE8F6
:1043F0001040412000F054BC10BD000050010020CE
:1044000010B5040013D00020FFF768FF032C12D072
:104410005FF00000FFF74EFF0120FFF75AFE00F0AB
:10442000F8012143BDE81040012000F039BC012013
:10443000FFF754FFF0E70120ECE700002DE9F04121
:10444000914C05460026607910B1012824D124E062
:1044500014F8266F4020FFF73CFE00F0030040F008
:104460000C01402000F01CFC4120FFF732FE40F020
:10447000C101412000F014FC3520FFF72AFE00F0B6
:104480003F0020751E210D2000F00AFC0020A071C5
:10449000E07160822082263C86E094F85100012879
:1044A0004FF0330025D0FFF714FE00F0BE0133209B
:1044B000491C00F0F5FB1D213B2000F0F1FB206CB6
:1044C00009284FF031007DD2FFF703FE00F07F0195
:1044D000312000F0E5FB0021302000F0E1FB206CF2
:1044E000092847D2DFE800F00E161E262E3641417D
:1044F0004100FFF7EEFD40F04101332000F0D0FB1A
:104500001921D9E748212F2000F0CAFB41F682612A
:10451000A06826E044212F2000F0C2FB42F6B4013F
:10452000A0681EE044212F2000F0BAFB43F604519E
:10453000A06816E044212F2000F0B2FB45F25E1186
:10454000A0680EE044212F2000F0AAFB47F61221BC
:10455000A06806E044212F2000F0A2FBA0684AF2E8
:10456000C6210844FFF7DCFE04E040215FF02F0085
:1045700000F096FB94F84F0094F85260012831D077
:104580001F21112000F08CFB4020FFF7A2FD00F05E
:104590003F01402000F084FB00210F2000F080FB51
:1045A00000210D2000F07CFB4FF480713748FBF7B1
:1045B00032FE0120207155B133482946743000F095
:1045C00080FC00E008E03048743000F08BFC60793B
:1045D00090B1EEB3052050E0FFF77BFD40F0800185
:1045E0003120C5E71D21112000F05AFB4020FFF7C4
:1045F00070FD00F03301CCE70520FFF701FF002E2E
:104600003FD1A046E069FBF7C1FF04460D462720D5
:10461000FFF75FFD20F0F800FBF7B8FF00221C4B0E
:10462000FBF704FE07460E46B8F82000FBF7AEFF86
:104630003A463346FBF7FAFD0022164BFBF7F6FD30
:104640000322FBF77BFF22462B46FBF708FF00E027
:1046500012E00022104BFBF790FE01F015FAFBF779
:10466000C1FF011D0848883000F02BFCBDE8F04177
:104670000548883000F036BC0620BDE8F041FFF761
:10468000BFBEBDE8F08100005001002050000020B6
:104690000000F03F0000244000408F402DE9F84F1B
:1046A0009A46DDE90D6B14460D468146DDF83C80E7
:1046B0000B9FFFF773FE85484FEA17225FEA090157
:1046C000009205D0B9F1010F71D1022D4ED9FEE74C
:1046D00040F8145F84600A994160867380F80FB0D7
:1046E00080F8108012994174139981748781204653
:1046F000FBF74CFF02460B4600207549FBF7AFFE67
:10470000FBF770FF84B2210A022000F0C9FAE1B27F
:10471000032000F0C5FA2846FCF750F901461220A4
:1047200000F0BEFA0A98FCF749F90146132000F0A0
:10473000B7FA2520009900F0B3FAF9B2262000F06C
:10474000AFFA0EB1594600E0FF21322000F0A8FA7E
:104750003020FFF7BEFC00F06F000EB1002100E03A
:104760008021084340EA081130209FE08146ED1D7A
:10477000E0E910540C2C80F809A04781067380F8FA
:104780000DB080F80E801099C173119901741299BF
:104790004174139989F8521001D90C2402E0062CB7
:1047A00000D20624072D03D0082D03D004E08BE0AF
:1047B0000B2C47D00C2C45D05FF0000189F8481035
:1047C0001D20FFF786FC290141EA4A003043C1B2AF
:1047D0001D2000F065FA1E20FFF77BFC00F00800AA
:1047E00040EA041141EA88000C99032202EA1121EF
:1047F0000843C1B21E2000F053FA2620FFF769FCDF
:1048000000F0F70199F8480041EAC000C1B2262043
:1048100000F046FA0C98C1B21F2000F041FA2020A7
:10482000009900F03DFAF9B2212000F039FA1EB1EA
:104830005946222000F034FA99F84F004E460128DC
:1048400002D00EE00121B9E74420FFF742FC40F01E
:104850008001442000F024FA96F85010242000F043
:104860001FFA092D02D0032136200FE01949B06844
:1048700088424FF002014FF0360003D900F010FAE1
:10488000642102E000F00CFA7F213A2000F008FADF
:10489000062C4FF031000DD0FFF71BFC00F0F801A3
:1048A0003120C91C00F0FCF90A213720BDE8F84F7F
:1048B00000F0F6B9FFF70DFC00F0F8013120491DBA
:1048C00000F0EEF90C21F0E7BDE8F88F5001002070
:1048D00080847E4140DD4A1F10B5074800F03AFB56
:1048E0000548143800F036FB0020FFF789FD024927
:1048F00000207439087110BDC401002010B50748AC
:1049000000F028FB0548143800F024FB0120FFF7D5
:1049100077FD024900207439087110BDC4010020E0
:104920000146392000F0BCB910B50146254800F019
:10493000C8FA244C603C607910B101282DD119E0EF
:104940004020FFF7C6FB00F0030040F010014020BC
:1049500000F0A6F94120FFF7BCFB00F03E0141202A
:1049600000F09EF93520FFF7B4FB00F03F0084F81B
:104970003A0012E094F84F00012818D0F7211120D6
:1049800000F08EF94020FFF7A4FB00F03F0000BFCD
:1049900040F04001402000F083F9022020710948D6
:1049A00000F0A0FABDE810400320FFF729BDF52173
:1049B000112000F075F94020FFF78BFB00F0330069
:1049C000E6E70000B00100202DE9FF4F81B09A46D4
:1049D000DDE910790C46DDF848800E9E0198FFF75E
:1049E000DDFC0920FFF775FB00904D20FFF771FB00
:1049F000DFF864B20546DBF80800FEF71BFF0099FC
:104A000001F07F01084340F07000010636D5112CFB
:104A100002DD45F0070502E005F0F8052D1DE9432C
:104A2000490703D0022C0CDA02240DE0052C01DA30
:104A3000052402E0142C00DD142400F0F001601FB6
:104A400005E0112C00DD112400F0F001A01E00F0A3
:104A50000F000143092000F023F929464D2000F002
:104A60001FF9390A01980091A8B101287ED15D464D
:104A70008BF83C40BAF1020F5FD9FEE74FF0FF31EF
:104A80008C4201DA0C4602E00E2C00DD0E2400F010
:104A9000F001601CDBE78BF80C4058460399CBF81B
:104AA0001C60C0E9041AABF820708BF822908BF8D8
:104AB000248015998BF825101699CBF828100398A7
:104AC000FBF764FD0022654BFBF7C9FCFBF78AFD91
:104AD00084B2210A042000F0E3F8E1B2052000F0DE
:104AE000DFF83046FBF752FD02460B4600205C49DA
:104AF000FBF7B5FCFBF776FD84B2210A022000F03B
:104B0000CFF8E1B2032000F0CBF82520009900F0A7
:104B1000C7F8F9B2262000F0C3F83020FFF7D9FA21
:104B200000F06F00B9F1000F01D0002100E08021FA
:104B3000084340EA081130207BE00AF10704C5E988
:104B400010460F9885F84900A5F84A7085F84C90F2
:104B5000139885F84F00149985F8501085F84E8009
:104B6000159985F851101699696500E070E00C2ED2
:104B700001D90C2602E0062E00D20626072C02D010
:104B8000082C02D003E00B2E07D00C2E05D00021FC
:104B900085F84810012802D00EE00121F8E74420F2
:104BA000FFF797FA40F08001442000F079F895F87B
:104BB0005010242000F074F81D20FFF78AFA0F9897
:104BC000210141EA400040EA0900C1B21D2000F085
:104BD00067F81E20FFF77DFA00F00B0040EA06118F
:104BE00041EA8800C1B21E2000F05AF82620FFF7E3
:104BF00070FA95F8481000F0F70040EAC100C1B221
:104C0000262000F04DF82020009900F049F8F9B274
:104C1000212000F045F8062E4FF031000ED0FFF7AE
:104C200058FA00F0F8013120C91C00F039F80A21C7
:104C3000372005B0BDE8F04F00F032B8FFF749FA71
:104C400000F0F8013120491D00F02AF80C21EFE7AF
:104C500005B0BDE8F08F00005001002080844E4078
:104C600080847E4110B50D4C6079002814D0012855
:104C700012D1FA21112000F013F84020FFF729FA91
:104C800000F03F01402000F00BF803202071BDE848
:104C900010400720FFF7B4BB10BD000050010020FA
:104CA00013B5012201A900F001F81CBD2DE9F04166
:104CB0000E4F15460E460446002240213846FEF7A8
:104CC0008DF844F08000FEF715FB002404E0305D11
:104CD000FEF710FB641CE4B2AC42F8D33846BDE8E2
:104CE000F04101224021FEF779B8000000040240A3
:104CF0000A4601460020FFF7D9BFFCF78FB9000034
:104D000010B594B014210DA8FBF785FA342168463C
:104D1000FBF781FA01210391022010210090002469
:104D20000491CDE9090480040B9000010C906846C1
:104D3000FCF706FD08B1FBF735FE1248016841F0AB
:104D400080510160006800F0805012900E480168A8
:104D500021F4C05141F4006101604168C943C906B2
:104D6000FBD50F200D900320CDE90E0410940121F6
:104D70000DA81194FCF7C8FA002801D0FBF712FE29
:104D800014B010BD24380240007000400F48016884
:104D900041F4807101600D4908310A680C4B1A40DA
:104DA0000A6002680B4B1A400260026822F48022FB
:104DB0000260086820F47D0008600020091D08607A
:104DC00005494FF00060086070470000003802405D
:104DD0000CC0FF88FEFFFEEE08ED00E0002202603E
:104DE00042600272C0E9031270470000044A116871
:104DF00009B100230B720161106000F04BB8000094
:104E0000400000202DE9F04120484FF48055056016
:104E1000FEF77EF80446FEF70FF9031B1C4C2068D2
:104E200098B10146002607E017689F4202D9FF1A91
:104E3000176000E0166009690A69002AF4D120B100
:104E400001692160C06820B18047104810300560BA
:104E500005E0FEE701692160C06898B180472068DD
:104E6000002810D0FEF75AF80146206802689142E7
:104E7000F0D8002807D0017A002904D1BDE8F0411C
:104E800000F008B8FEE7BDE8F08100001804024019
:104E90004000002070B50446FEF738F805460120B2
:104EA0002072FEF73BF821682844884201D8084662
:104EB00003E0FEF733F828442060BDE87040FEF7B9
:104EC0005FB870B505460846FEF770F904462846F7
:104ED00000F040F8FEF71AF8844200D204462C6035
:104EE0006C6070BD2DE9F0410400EFF3108572B6DF
:104EF0002AD0174F3868014602E0A04224D000694A
:104F00000028FAD1606800262060267261B1FEF7A1
:104F100005F821680144216038680268914206D290
:104F20002046FFF763FF0FE0FEF786F8F8E7016918
:104F300041B122680B689A4201D90846F7E704613B
:104F4000216101E00461266185F31088BDE8F081EC
:104F50004000002070B5EFF3108572B6124C216846
:104F60000A1E1ED0E8B1814219D1087A0026012814
:104F7000086902D048B1206013E020B10E722060B1
:104F8000FFF788FF0DE0FEF701F9266009E0814296
:104F900003D108691061002803E00A460969002965
:104FA000F5D185F3108870BD400000202DE9F04157
:104FB000044600680169E26821F44051114301612F
:104FC0002169A068E26908436169114308432168C7
:104FD000CA6849F20C639A430243CA602068416977
:104FE000A26921F4407111434161E16964253226CF
:104FF000B1F5004F464821681BD0814267D1FCF7CC
:1050000041FB00EBC00101EB00106168A84689007C
:10501000B0FBF1F1B1FBF8F5FCF734FB00EBC0019C
:1050200001EB001061688900B0FBF1F7FCF72AFB87
:1050300066E0814219D1FCF725FB00EBC00101EBD2
:1050400000106168A8464900B0FBF1F1B1FBF8F52A
:10505000FCF718FB00EBC00101EB00106168490090
:10506000B0FBF1F7FCF70EFB18E0FCF7F5FA00EBEC
:10507000C00101EB00106168A8464900B0FBF1F1E6
:10508000B1FBF8F5FCF7E8FA00EBC00101EB00100A
:1050900061684900B0FBF1F7FCF7DEFA00EBC001F4
:1050A00001EB001061684900B0FBF1F1B1FBF8F0D1
:1050B0006FF01801484307EB800006EB0011B1FBCD
:1050C000F8F0216865F31F108860BDE8F081FCF7F7
:1050D000C3FA00EBC00101EB00106168A84689002B
:1050E000B0FBF1F1B1FBF8F5FCF7B6FA00EBC0014B
:1050F00001EB001061688900B0FBF1F7FCF7ACFA36
:1051000000EBC00101EB001061688900CCE70000F2
:10511000003801402DE9F0471D4690460E460446F2
:10512000FBF7D4FE07465FEA08004FF000094FF096
:10513000010808D030E0681C05D095B1FBF7C6FE29
:10514000C01BA8420DD82068006836EA0000F2D1E2
:1051500027E0681C20D025B1FBF7B8FEC01BA84291
:105160001AD92068C16821F08001C1602068C16837
:1051700021F02001C1602068C16821F48071C16004
:105180002068416921F00101416184F8398084F887
:1051900038900320BDE8F0872068006836EA0000F8
:1051A000D7D00020F6E7FEE737B514460846064B91
:1051B0006A46214600F0CCF804466946002000F01B
:1051C0005EFC20463EBD00007F5A000802E008C891
:1051D000121F08C1002AFAD170477047002001E071
:1051E00001C1121F002AFBD1704700002DE9FF5FAB
:1051F000DDE90220010DDDF838B0024318D044F695
:105200001050A1F2FF3141430D140F98012820D016
:10521000A5EB0B00401C5FEA000A4FF00004474E6C
:10522000DFF81C91A046504616D5CAF1000728E0C9
:105230000F98012443A2012808D0002100980F9B59
:10524000C0E90021C0E90243BDE8FF9F6FEA0B01FE
:10525000F4E7CBF10000DEE7074612E0F80707D0DD
:105260002246334640464946FBF787F88046894642
:105270002246334610461946FBF77FF804460E4691
:105280007F10002FEAD1DDE90201BAF1000F42469A
:105290004B4602DAFBF771F801E0FBF7E0F8044651
:1052A0000E460022284BFBF7B7F903D84FF0FF302A
:1052B000014607E00022254B20463146FAF7B6FFAB
:1052C000FBF7AAFA102409E0002C0ADB0A220023CB
:1052D000FAF744FF019B30321A55641E50EA01026E
:1052E000F2D1641C019AC4F1110314440F9A012AEB
:1052F00003D0012208430DD10AE0084304D0002066
:105300004FF0110B0F9080E7A3EB0B056D1E0DE026
:105310005B4504DD4FF0000205F1010504E003DA0E
:105320004FF00002A5F10105002AECD000980F997A
:10533000C0E90231C0E9004586E7000000002440D2
:105340000000F03F300000000000F0430000E03FAC
:105350002DE9FF4F95B09B468946064600250FE292
:10536000252877D100242746F84A0121059400E03A
:10537000044316F8013F203B01FA03F01042F7D135
:1053800030782A2811D06FF02F033078A0F1300246
:10539000092A16D8059A44F0020402EB820203EBB4
:1053A00042021044761C0590EFE759F8042B059251
:1053B000002A03DA504244F40054059044F00204F9
:1053C000761C30782E2816D116F8010F44F004040C
:1053D0002A280DD06FF02F023078A0F13003092B6E
:1053E00009D807EB870302EB4303C718761CF3E7E2
:1053F00059F8047B761C30786C280FD006DC4C28DA
:1054000017D068280DD06A2814D104E0742810D071
:105410007A280FD10DE044F400140AE044F480141B
:1054200001E044F440147278824202D104F5801401
:10543000761C761C307866280BD013DC582877D081
:1054400009DC002875D04528F6D04628F4D0472836
:105450001AD19DE118E0632835D0642879D06528F9
:1054600012D195E1702873D008DC6728F1D0692843
:105470006FD06E280DD06F2806D1B5E073282CD0E0
:10548000752875D0782874D05A46179990476D1CA6
:1054900075E1C4F30250022809D003280DD0D9F8D1
:1054A000001004280DD00D6009F1040967E1D9F856
:1054B0000010EA17C1E90052F6E7D9F800100D8094
:1054C000F2E70D70F0E719F8041B8DF800100020CA
:1054D0008DF80100EA46012003E059F804AB4FF0D3
:1054E000FF3061074FF0000102D40DE008F1010127
:1054F0008846B9420FDA8045F8DB1AF8081000290F
:10550000F4D108E008F1010188468142FADB1AF87B
:1055100008100029F6D105985B46A0EB0807214644
:105520003846179A00F094FA284400EB080507E083
:105530004DE029E10DE01AF8010B5A461799904702
:10554000B8F10108F7D25B4621463846179A13E1B5
:1055500042E00A220092C4F302524FF0000A022AEB
:1055600008D059F804CB032A4FEAEC710AD00DE0B9
:1055700029E02AE009F1070121F00702F2E802C15F
:10558000914609E00FFA8CFC4FEAEC71042A03D132
:105590004FFA8CFC4FEAEC71002907DA0A46002129
:1055A000DCF1000C61EB02012D2202E0220504D5A2
:1055B0002B228DF80420012203E0E20701D02022F3
:1055C000F7E7904659E00A2102E010220DE0102191
:1055D0004FF0000A00910BE010224FF0000A44F057
:1055E00004040827009203E008224FF0000A00920A
:1055F000C4F30252022A05D059F804CB0021032A31
:1056000008D009E009F1070121F00702F2E802C120
:10561000914605E01FFA8CFC042A01D10CF0FF0C26
:105620004FF00008220728D5702806D0009B83F091
:10563000100353EA0A0305D00EE040228DF804203F
:10564000012208E05CEA010206D030228DF8042035
:105650008DF8050002229046009B83F0080353EA70
:105660000A030AD15CEA010201D1620705D53022A2
:105670008DF804204FF001087F1E582804D034A074
:1056800003900EA802900DE036A0F9E7534660465D
:10569000009AFAF763FD84460398825C0298401EE4
:1056A000029002705CEA0100F0D1029806A9081A83
:1056B00000F1200A600702D524F4803400E00127BD
:1056C000574502DDA7EB0A0000E0002000EB0A01CD
:1056D000009005984144401A0590E00306D45B46CB
:1056E0002146179A059800F0B3F90544002706E013
:1056F00001A85A46C05D179990476D1C7F1C47450D
:10570000F6DBE0030CD55B462146179A059800F0BE
:105710009FF9054404E030205A46179990476D1CC4
:105720000099481E00900029F5DC08E002980299D3
:105730005A460078491C0291179990476D1CBAF19E
:105740000001AAF1010AF1DC65E10000092801006D
:1057500030313233343536373839616263646566E7
:1057600000000000303132333435363738394142A9
:10577000434445460000000000F058F90544761CFB
:10578000307800287FF4ECAD19B02846BDE8F08FE2
:10579000620700D4062709F1070222F0070CFCE893
:1057A0000223E14603F000485FEA080C02D00FF242
:1057B000702C0DE05FEA045C02D50FF2682C07E064
:1057C0005FEAC47C02D00FF2602C01E0AFF2700CF3
:1057D0004FF0FF3823F00043CDF850C065280CD0BF
:1057E00006DC452809D046281DD047283DD13DE09C
:1057F000662818D067287ED138E00021112F01DB00
:10580000112000E0781CCDE9000106A90EA8FFF7E1
:10581000EDFCDDE90F010E9A03910021009207F1E2
:10582000010A04914DE04FF000400097CDE90110CE
:1058300006A90EA8FFF7DAFCDDE90F0203920E9B22
:1058400011990022DDF80CA00093049211B9791C83
:1058500000EB010AB7EB0A0004D4C0F1FF3007F1F6
:10586000010A0490AAEB0700019044E0012F00DA3E
:1058700001270021112F01DD112000E03846CDE97C
:10588000000106A90EA8FFF7B1FCDDE90F010E9A91
:105890000391002104910092BA4621070CD4039988
:1058A000514500DA8A46BAF1010F05DD009AAAF1E6
:1058B0000101515C302908D0B84202DA10F1040F1E
:1058C00006DA0121CDE9011015E0AAF10101E9E7AD
:1058D000002805DC049901440491AAEB000102E0D0
:1058E000411C514500DD8A460499401A401C019034
:1058F0004FF000400290200704D40198504501DB8E
:10590000CDF8048000208DF84F0002980DF14F076C
:10591000B0F1004F25D02B200E9002984FF00208D6
:1059200000280CDA404202902D200E9007E00A2158
:105930000298FAF789FE3031029007F8011DB8F19C
:105940000001A8F10108F2DC02980028EFD1791ECD
:105950000E980870307800F0200040F0450007F8FD
:10596000020D12A8C01B00F107081498007800B1BE
:10597000012000EB0A01019801EBE0710598414418
:10598000401A401E0590E00306D45B462146179A54
:10599000059800F05DF805441498007818B15A464F
:1059A000179990476D1CE00324D55B462146179A52
:1059B000059800F04DF805441CE00498002807DB2A
:1059C000DDE90301884203DD0098405C179901E09E
:1059D000179930205A469047049805F10105401C5C
:1059E00004900198401E019004D12E205A46179928
:1059F00090476D1CBAF10001AAF1010ADDDC05E057
:105A000017F8010B5A46179990476D1CB8F1000121
:105A1000A8F10108F4DC5B462146179A0598ABE62D
:105A20002D0000002B000000200000002DE9F041B7
:105A3000044600251E461746880404D405E039466E
:105A40002020B0476D1C641EF9D52846BDE8F081C2
:105A50002DE9F041044600251E469046C80301D5B5
:105A6000302700E02027880404D505E04146384669
:105A7000B0476D1C641EF9D52846BDE8F0810A6860
:105A8000531C0B60107070472DE9F041C1F30A52AE
:105A9000A2F2FF362F4A304B0D460446142E2FDA61
:105AA000002E12DAFAF7C2FB00221346FAF7B4FD11
:105AB0004CD2002DBCBF4FF00045002446DB55EA18
:105AC000040018BF254D19D140E0DFF894C02CFA2E
:105AD00006F705EA070C5CEA040C08BFBDE8F08194
